{
  "_format": "hh-sol-artifact-1",
  "contractName": "SilensModelRegistry",
  "sourceName": "contracts/SilensModelRegistry.sol",
  "abi": [
    {
      "inputs": [],
      "stateMutability": "nonpayable",
      "type": "constructor"
    },
    {
      "inputs": [
        {
          "internalType": "address",
          "name": "owner",
          "type": "address"
        }
      ],
      "name": "OwnableInvalidOwner",
      "type": "error"
    },
    {
      "inputs": [
        {
          "internalType": "address",
          "name": "account",
          "type": "address"
        }
      ],
      "name": "OwnableUnauthorizedAccount",
      "type": "error"
    },
    {
      "inputs": [],
      "name": "ReentrancyGuardReentrantCall",
      "type": "error"
    },
    {
      "anonymous": false,
      "inputs": [
        {
          "indexed": true,
          "internalType": "uint256",
          "name": "modelId",
          "type": "uint256"
        },
        {
          "indexed": false,
          "internalType": "uint8",
          "name": "newStatus",
          "type": "uint8"
        }
      ],
      "name": "ModelStatusUpdated",
      "type": "event"
    },
    {
      "anonymous": false,
      "inputs": [
        {
          "indexed": true,
          "internalType": "uint256",
          "name": "modelId",
          "type": "uint256"
        },
        {
          "indexed": true,
          "internalType": "address",
          "name": "submitter",
          "type": "address"
        },
        {
          "indexed": false,
          "internalType": "string",
          "name": "name",
          "type": "string"
        },
        {
          "indexed": false,
          "internalType": "string",
          "name": "summary",
          "type": "string"
        },
        {
          "indexed": false,
          "internalType": "string",
          "name": "ipfsHash",
          "type": "string"
        },
        {
          "indexed": false,
          "internalType": "uint8",
          "name": "status",
          "type": "uint8"
        },
        {
          "indexed": false,
          "internalType": "uint256",
          "name": "submissionTime",
          "type": "uint256"
        },
        {
          "indexed": false,
          "internalType": "uint256",
          "name": "reviewEndTime",
          "type": "uint256"
        }
      ],
      "name": "ModelSubmitted",
      "type": "event"
    },
    {
      "anonymous": false,
      "inputs": [
        {
          "indexed": true,
          "internalType": "address",
          "name": "previousOwner",
          "type": "address"
        },
        {
          "indexed": true,
          "internalType": "address",
          "name": "newOwner",
          "type": "address"
        }
      ],
      "name": "OwnershipTransferred",
      "type": "event"
    },
    {
      "anonymous": false,
      "inputs": [
        {
          "indexed": true,
          "internalType": "uint256",
          "name": "modelId",
          "type": "uint256"
        },
        {
          "indexed": true,
          "internalType": "address",
          "name": "reviewer",
          "type": "address"
        },
        {
          "indexed": false,
          "internalType": "string",
          "name": "prompt",
          "type": "string"
        },
        {
          "indexed": false,
          "internalType": "string",
          "name": "outputLog",
          "type": "string"
        },
        {
          "indexed": false,
          "internalType": "string",
          "name": "screenshotHash",
          "type": "string"
        },
        {
          "indexed": false,
          "internalType": "uint8",
          "name": "severity",
          "type": "uint8"
        },
        {
          "indexed": false,
          "internalType": "uint256",
          "name": "timestamp",
          "type": "uint256"
        }
      ],
      "name": "ReviewSubmitted",
      "type": "event"
    },
    {
      "inputs": [
        {
          "internalType": "uint256",
          "name": "_modelId",
          "type": "uint256"
        }
      ],
      "name": "getModel",
      "outputs": [
        {
          "components": [
            {
              "internalType": "uint256",
              "name": "id",
              "type": "uint256"
            },
            {
              "internalType": "address",
              "name": "submitter",
              "type": "address"
            },
            {
              "internalType": "string",
              "name": "name",
              "type": "string"
            },
            {
              "internalType": "string",
              "name": "summary",
              "type": "string"
            },
            {
              "internalType": "string",
              "name": "ipfsHash",
              "type": "string"
            },
            {
              "internalType": "enum SilensModelRegistry.ModelStatus",
              "name": "status",
              "type": "uint8"
            },
            {
              "internalType": "uint256",
              "name": "submissionTime",
              "type": "uint256"
            },
            {
              "internalType": "uint256",
              "name": "reviewEndTime",
              "type": "uint256"
            },
            {
              "internalType": "uint256",
              "name": "upvotes",
              "type": "uint256"
            },
            {
              "internalType": "uint256",
              "name": "downvotes",
              "type": "uint256"
            }
          ],
          "internalType": "struct SilensModelRegistry.Model",
          "name": "",
          "type": "tuple"
        }
      ],
      "stateMutability": "view",
      "type": "function"
    },
    {
      "inputs": [
        {
          "internalType": "uint256",
          "name": "_modelId",
          "type": "uint256"
        }
      ],
      "name": "getModelReviews",
      "outputs": [
        {
          "components": [
            {
              "internalType": "address",
              "name": "reviewer",
              "type": "address"
            },
            {
              "internalType": "string",
              "name": "prompt",
              "type": "string"
            },
            {
              "internalType": "string",
              "name": "outputLog",
              "type": "string"
            },
            {
              "internalType": "string",
              "name": "screenshotHash",
              "type": "string"
            },
            {
              "internalType": "uint8",
              "name": "severity",
              "type": "uint8"
            },
            {
              "internalType": "uint256",
              "name": "timestamp",
              "type": "uint256"
            }
          ],
          "internalType": "struct SilensModelRegistry.Review[]",
          "name": "",
          "type": "tuple[]"
        }
      ],
      "stateMutability": "view",
      "type": "function"
    },
    {
      "inputs": [],
      "name": "getTotalModels",
      "outputs": [
        {
          "internalType": "uint256",
          "name": "",
          "type": "uint256"
        }
      ],
      "stateMutability": "view",
      "type": "function"
    },
    {
      "inputs": [
        {
          "internalType": "uint256",
          "name": "",
          "type": "uint256"
        },
        {
          "internalType": "address",
          "name": "",
          "type": "address"
        }
      ],
      "name": "hasReviewed",
      "outputs": [
        {
          "internalType": "bool",
          "name": "",
          "type": "bool"
        }
      ],
      "stateMutability": "view",
      "type": "function"
    },
    {
      "inputs": [],
      "name": "identitySystem",
      "outputs": [
        {
          "internalType": "contract SilensIdentity",
          "name": "",
          "type": "address"
        }
      ],
      "stateMutability": "view",
      "type": "function"
    },
    {
      "inputs": [
        {
          "internalType": "uint256",
          "name": "",
          "type": "uint256"
        },
        {
          "internalType": "uint256",
          "name": "",
          "type": "uint256"
        }
      ],
      "name": "modelReviews",
      "outputs": [
        {
          "internalType": "address",
          "name": "reviewer",
          "type": "address"
        },
        {
          "internalType": "string",
          "name": "prompt",
          "type": "string"
        },
        {
          "internalType": "string",
          "name": "outputLog",
          "type": "string"
        },
        {
          "internalType": "string",
          "name": "screenshotHash",
          "type": "string"
        },
        {
          "internalType": "uint8",
          "name": "severity",
          "type": "uint8"
        },
        {
          "internalType": "uint256",
          "name": "timestamp",
          "type": "uint256"
        }
      ],
      "stateMutability": "view",
      "type": "function"
    },
    {
      "inputs": [
        {
          "internalType": "uint256",
          "name": "",
          "type": "uint256"
        }
      ],
      "name": "models",
      "outputs": [
        {
          "internalType": "uint256",
          "name": "id",
          "type": "uint256"
        },
        {
          "internalType": "address",
          "name": "submitter",
          "type": "address"
        },
        {
          "internalType": "string",
          "name": "name",
          "type": "string"
        },
        {
          "internalType": "string",
          "name": "summary",
          "type": "string"
        },
        {
          "internalType": "string",
          "name": "ipfsHash",
          "type": "string"
        },
        {
          "internalType": "enum SilensModelRegistry.ModelStatus",
          "name": "status",
          "type": "uint8"
        },
        {
          "internalType": "uint256",
          "name": "submissionTime",
          "type": "uint256"
        },
        {
          "internalType": "uint256",
          "name": "reviewEndTime",
          "type": "uint256"
        },
        {
          "internalType": "uint256",
          "name": "upvotes",
          "type": "uint256"
        },
        {
          "internalType": "uint256",
          "name": "downvotes",
          "type": "uint256"
        }
      ],
      "stateMutability": "view",
      "type": "function"
    },
    {
      "inputs": [],
      "name": "owner",
      "outputs": [
        {
          "internalType": "address",
          "name": "",
          "type": "address"
        }
      ],
      "stateMutability": "view",
      "type": "function"
    },
    {
      "inputs": [],
      "name": "renounceOwnership",
      "outputs": [],
      "stateMutability": "nonpayable",
      "type": "function"
    },
    {
      "inputs": [],
      "name": "reputationSystem",
      "outputs": [
        {
          "internalType": "contract SilensReputationSystem",
          "name": "",
          "type": "address"
        }
      ],
      "stateMutability": "view",
      "type": "function"
    },
    {
      "inputs": [],
      "name": "reviewPeriod",
      "outputs": [
        {
          "internalType": "uint256",
          "name": "",
          "type": "uint256"
        }
      ],
      "stateMutability": "view",
      "type": "function"
    },
    {
      "inputs": [
        {
          "internalType": "address",
          "name": "_identitySystem",
          "type": "address"
        }
      ],
      "name": "setIdentitySystem",
      "outputs": [],
      "stateMutability": "nonpayable",
      "type": "function"
    },
    {
      "inputs": [
        {
          "internalType": "address",
          "name": "_reputationSystem",
          "type": "address"
        }
      ],
      "name": "setReputationSystem",
      "outputs": [],
      "stateMutability": "nonpayable",
      "type": "function"
    },
    {
      "inputs": [
        {
          "internalType": "string",
          "name": "_name",
          "type": "string"
        },
        {
          "internalType": "string",
          "name": "_summary",
          "type": "string"
        },
        {
          "internalType": "string",
          "name": "_ipfsHash",
          "type": "string"
        }
      ],
      "name": "submitModel",
      "outputs": [
        {
          "internalType": "uint256",
          "name": "",
          "type": "uint256"
        }
      ],
      "stateMutability": "nonpayable",
      "type": "function"
    },
    {
      "inputs": [
        {
          "internalType": "uint256",
          "name": "_modelId",
          "type": "uint256"
        },
        {
          "internalType": "string",
          "name": "_prompt",
          "type": "string"
        },
        {
          "internalType": "string",
          "name": "_outputLog",
          "type": "string"
        },
        {
          "internalType": "string",
          "name": "_screenshotHash",
          "type": "string"
        },
        {
          "internalType": "uint8",
          "name": "_severity",
          "type": "uint8"
        }
      ],
      "name": "submitReview",
      "outputs": [],
      "stateMutability": "nonpayable",
      "type": "function"
    },
    {
      "inputs": [
        {
          "internalType": "address",
          "name": "newOwner",
          "type": "address"
        }
      ],
      "name": "transferOwnership",
      "outputs": [],
      "stateMutability": "nonpayable",
      "type": "function"
    },
    {
      "inputs": [
        {
          "internalType": "uint256",
          "name": "_modelId",
          "type": "uint256"
        },
        {
          "internalType": "enum SilensModelRegistry.ModelStatus",
          "name": "_status",
          "type": "uint8"
        }
      ],
      "name": "updateModelStatus",
      "outputs": [],
      "stateMutability": "nonpayable",
      "type": "function"
    }
  ],
  "bytecode": "0x6080806040523461008457331561006e5760008054336001600160a01b03198216811783556040519290916001600160a01b0316907f8be0079c531659141344cd1fd0a4f28419497f9722a3daafe3b4186f6b6457e09080a360018055610258600855611a46908161008a8239f35b631e4fbdf760e01b815260006004820152602490fd5b600080fdfe6080604052600436101561001257600080fd5b6000803560e01c80632f30187b1461161a57806331143cee146115da5780633b249810146115bc5780636587eda11461159357806366ccea5b146115535780636a030ca9146114705780636d361694146112aa578063715018a614611250578063716f833c14610bf757806372e1a69914610a4c5780637c7198cc146109f55780638da5cb5b146109ce578063a6d177161461090c578063aa8e0c26146101ac578063c705550214610183578063f2fde38b146100f85763f508dde6146100d857600080fd5b346100f557806003193601126100f5576020600254604051908152f35b80fd5b50346100f55760203660031901126100f5576101126116a1565b61011a6119e4565b6001600160a01b0390811690811561016a57600054826001600160601b0360a01b821617600055167f8be0079c531659141344cd1fd0a4f28419497f9722a3daafe3b4186f6b6457e0600080a380f35b604051631e4fbdf760e01b815260048101849052602490fd5b50346100f557806003193601126100f5576004546040516001600160a01b039091168152602090f35b50346100f55760a03660031901126100f5576024356001600160401b038111610587576101dd90369060040161187a565b6044356001600160401b038111610908576101fc90369060040161187a565b6064356001600160401b0381116109045761021b90369060040161187a565b6084359160ff83168303610578576024602060018060a01b03600454166040519283809263237f1a2160e01b82523360048301525afa80156108f9576102689187916108ca575b50611975565b6004358552600560205261028160408620541515611902565b600435855260056020526007604086200154421161088f5760043585526007602052604085203360005260205260ff6040600020541661085757600160ff8416101580610849575b15610811576040516102da81611736565b3381526020810185815282604083015283606083015260ff851660808301524260a08301526004358752600660205260408720805490680100000000000000008210156106555790610331916001820181556118d0565b9190916107fd57825182546001600160a01b0319166001600160a01b0391909116178255518051906001600160401b03821161065557819061037660018501546116b7565b601f81116107ad575b50602090601f831160011461073e578a92610733575b50508160011b916000199060031b1c19161760018201555b60408201518051906001600160401b0382116106555781906103d260028501546116b7565b601f81116106e3575b50602090601f8311600114610674578a92610669575b50508160011b916000199060031b1c19161760028201555b60608201518051906001600160401b03821161065557819061042e60038501546116b7565b601f8111610605575b50602090601f8311600114610596578a9261058b575b50508160011b916000199060031b1c19161760038201555b600560a0600483019360ff6080820151169460ff199586825416179055015191015560043586526007602052604086203360005260205260016040600020918254161790558460018060a01b036003541680610534575b505060ff916104eb6104f9926104dd6040519760a0895260a0890190611817565b908782036020890152611817565b908582036040870152611817565b911660608301524260808301527ffe182c8d48aa902bb8447011399646e6072f1bf55c4064553d79803fcd334f0f339280600435930390a380f35b803b1561058757818091602460405180948193632c59840360e01b83523360048401525af1801561057c57156104bc5761056d90611723565b6105785784386104bc565b8480fd5b6040513d84823e3d90fd5b5080fd5b01519050388061044d565b9250600384018a5260208a20908a935b601f19841685106105ea576001945083601f198116106105d1575b505050811b016003820155610465565b015160001960f88460031b161c191690553880806105c1565b818101518355602094850194600190930192909101906105a6565b909150600384018a5260208a20601f840160051c81016020851061064e575b90849392915b601f830160051c82018110610640575050610437565b8c815585945060010161062a565b5080610624565b634e487b7160e01b89526041600452602489fd5b0151905038806103f1565b9250600284018a5260208a20908a935b601f19841685106106c8576001945083601f198116106106af575b505050811b016002820155610409565b015160001960f88460031b161c1916905538808061069f565b81810151835560209485019460019093019290910190610684565b909150600284018a5260208a20601f840160051c81016020851061072c575b90849392915b601f830160051c8201811061071e5750506103db565b8c8155859450600101610708565b5080610702565b015190503880610395565b9250600184018a5260208a20908a935b601f1984168510610792576001945083601f19811610610779575b505050811b0160018201556103ad565b015160001960f88460031b161c19169055388080610769565b8181015183556020948501946001909301929091019061074e565b909150600184018a5260208a20601f840160051c8101602085106107f6575b90849392915b601f830160051c820181106107e857505061037f565b8c81558594506001016107d2565b50806107cc565b634e487b7160e01b88526004889052602488fd5b60405162461bcd60e51b815260206004820152601060248201526f496e76616c696420736576657269747960801b6044820152606490fd5b50600560ff841611156102c9565b60405162461bcd60e51b815260206004820152601060248201526f105b1c9958591e481c995d9a595dd95960821b6044820152606490fd5b60405162461bcd60e51b815260206004820152601360248201527214995d9a595dc81c195c9a5bd908195b991959606a1b6044820152606490fd5b6108ec915060203d6020116108f2575b6108e48183611751565b81019061195d565b38610262565b503d6108da565b6040513d88823e3d90fd5b8380fd5b8280fd5b50346100f55760403660031901126100f557602435600435825260066020526040822080548210156109085761094292506118d0565b5080546001600160a01b031661095a60018301611772565b9161096760028201611772565b6109bf61097660038401611772565b6109b1600560ff600487015416950154936109a3604051988998895260c060208a015260c0890190611817565b908782036040890152611817565b908582036060870152611817565b91608084015260a08301520390f35b50346100f557806003193601126100f557546040516001600160a01b039091168152602090f35b50346100f55760403660031901126100f5576024356001600160a01b0381169190829003610a4757604090600435815260076020522090600052602052602060ff604060002054166040519015158152f35b600080fd5b50346100f5576020806003193601126105875760043582526006808252604083209081546001600160401b038111610be3576040519394916005610a9483821b880187611751565b82865286860190819585528785209085925b858410610b6a57505050505050604051928484019085855251809152604084019460408260051b8601019392955b828710610ae15785850386f35b909192938280600192603f19898203018552875190610b43610b30610b1e60c0888060a01b03865116855286860151908088870152850190611817565b60408501518482036040860152611817565b6060808501519084830390850152611817565b91608060ff81830151169083015260a0809101519101529601920196019592919092610ad4565b848a60019260409c9b999c51610b7f81611736565b848060a01b038754168152610b95858801611772565b83820152610ba560028801611772565b6040820152610bb660038801611772565b606082015260ff60048801541660808201528587015460a082015281520193019301929198959798610aa6565b634e487b7160e01b85526041600452602485fd5b50346100f55760603660031901126100f5576004356001600160401b03811161058757610c2890369060040161187a565b6024356001600160401b03811161090857610c4790369060040161187a565b906044356001600160401b03811161090457610c6790369060040161187a565b9260026001541461123e5760026001556024602060018060a01b03600454166040519283809263237f1a2160e01b82523360048301525afa90811561057c5790610cb79183916108ca5750611975565b60025492600019841461122a5760018401600255610cd7600854426119c1565b60405190610ce4826116f1565b6001860182523360208301528460408301528260608301528660808301528360a08301524260c083015260e0820152826101008201528261012082015260018501835260056020526040832090805182556001820160018060a01b036020830151166001600160601b0360a01b82541617905560408101518051906001600160401b038211611082578190610d7c60028601546116b7565b601f81116111da575b50602090601f831160011461116b578792611160575b50508160011b916000199060031b1c19161760028301555b60608101518051906001600160401b038211611082578190610dd860038601546116b7565b601f8111611110575b50602090601f83116001146110a1578792611096575b50508160011b916000199060031b1c19161760038301555b60808101518051906001600160401b038211611082578190610e3460048601546116b7565b601f8111611032575b50602090601f8311600114610fc3578792610fb8575b50508160011b916000199060031b1c19161760048301555b60a08101516004811015610fa457600991610e8c6101209260058601611945565b60c0810151600685015560e08101516007850155610100810151600885015501519101556003546001600160a01b031680610f47575b50610efb6020956104eb610ed8600854426119c1565b93610eee6040519760c0895260c0890190611817565b908782038a890152611817565b91606084015242608084015260a08301527fb56d77baa8d580886dc9aa53f94b575066044c465a8e86cfc133627f8576117633928060018601930390a360018055600160405191018152f35b948583963b1561090457839060246040518099819363f7d7c98560e01b83523360048401525af1958615610f9957602096610f84575b5094610ec2565b92610f92610efb9294611723565b9290610f7d565b6040513d85823e3d90fd5b634e487b7160e01b85526021600452602485fd5b015190503880610e53565b9250600485018752602087209087935b601f1984168510611017576001945083601f19811610610ffe575b505050811b016004830155610e6b565b015160001960f88460031b161c19169055388080610fee565b81810151835560209485019460019093019290910190610fd3565b90915060048501875260208720601f840160051c81016020851061107b575b90849392915b601f830160051c8201811061106d575050610e3d565b898155859450600101611057565b5080611051565b634e487b7160e01b86526041600452602486fd5b015190503880610df7565b9250600385018752602087209087935b601f19841685106110f5576001945083601f198116106110dc575b505050811b016003830155610e0f565b015160001960f88460031b161c191690553880806110cc565b818101518355602094850194600190930192909101906110b1565b90915060038501875260208720601f840160051c810160208510611159575b90849392915b601f830160051c8201811061114b575050610de1565b898155859450600101611135565b508061112f565b015190503880610d9b565b9250600285018752602087209087935b601f19841685106111bf576001945083601f198116106111a6575b505050811b016002830155610db3565b015160001960f88460031b161c19169055388080611196565b8181015183556020948501946001909301929091019061117b565b90915060028501875260208720601f840160051c810160208510611223575b90849392915b601f830160051c82018110611215575050610d85565b8981558594506001016111ff565b50806111f9565b634e487b7160e01b82526011600452602482fd5b604051633ee5aeb560e01b8152600490fd5b50346100f557806003193601126100f5576112696119e4565b80546001600160a01b03198116825581906001600160a01b03167f8be0079c531659141344cd1fd0a4f28419497f9722a3daafe3b4186f6b6457e08280a380f35b50346100f55760203660031901126100f557806101206040516112cc816116f1565b82815282602082015260606040820152606080820152606060808201528260a08201528260c08201528260e082015282610100820152015260043581526005602052604081206040519061131f826116f1565b8054825260018101546001600160a01b0316602083015261134260028201611772565b604083015261135360038201611772565b606083015261136460048201611772565b608083015260ff600582015416600481101561145c579060099160a0840152600681015460c0840152600781015460e0840152600881015461010084015201546101208201526040518091602082528051602083015260018060a01b03602082015116604083015260408101516101206114206113ef61014093846060880152610160870190611817565b61140b606086015191601f1992838983030160808a0152611817565b906080860151908783030160a0880152611817565b9261143360a082015160c0870190611857565b60c081015160e086015260e0810151610100860152610100810151828601520151908301520390f35b634e487b7160e01b84526021600452602484fd5b50346100f55760203660031901126100f5576040906004358152600560205220604081549160018060a01b036001820154166114ae60028301611772565b916114bb60038201611772565b926114c860048301611772565b9361153961152e60ff60058601541696611520600687015494611512600789015497600960088b01549a01549a8d519e8f9e8f6101409384938252602082015201528d0190611817565b908b820360608d0152611817565b9089820360808b0152611817565b9560a0880190611857565b60c086015260e08501526101008401526101208301520390f35b50346100f55760203660031901126100f55761156d6116a1565b6115756119e4565b60018060a01b03166001600160601b0360a01b600454161760045580f35b50346100f557806003193601126100f5576003546040516001600160a01b039091168152602090f35b50346100f557806003193601126100f5576020600854604051908152f35b50346100f55760203660031901126100f5576115f46116a1565b6115fc6119e4565b60018060a01b03166001600160601b0360a01b600354161760035580f35b50346100f55760403660031901126100f55760043560243560048110156109085760207fbfb0438a1ae05f61e561fea2dd930342b4ab667be8da8a67ef114cd4ca3636e5916116676119e4565b8385526005825261167d60408620541515611902565b838552600582526116948160056040882001611945565b60ff60405191168152a280f35b600435906001600160a01b0382168203610a4757565b90600182811c921680156116e7575b60208310146116d157565b634e487b7160e01b600052602260045260246000fd5b91607f16916116c6565b61014081019081106001600160401b0382111761170d57604052565b634e487b7160e01b600052604160045260246000fd5b6001600160401b03811161170d57604052565b60c081019081106001600160401b0382111761170d57604052565b90601f801991011681019081106001600160401b0382111761170d57604052565b90604051918260008254611785816116b7565b908184526020946001916001811690816000146117f557506001146117b6575b5050506117b492500383611751565b565b600090815285812095935091905b8183106117dd5750506117b493508201013880806117a5565b855488840185015294850194879450918301916117c4565b925050506117b494925060ff191682840152151560051b8201013880806117a5565b919082519283825260005b848110611843575050826000602080949584010152601f8019910116010190565b602081830181015184830182015201611822565b9060048210156118645752565b634e487b7160e01b600052602160045260246000fd5b81601f82011215610a47578035906001600160401b03821161170d57604051926118ae601f8401601f191660200185611751565b82845260208383010111610a4757816000926020809301838601378301015290565b80548210156118ec576000526006602060002091020190600090565b634e487b7160e01b600052603260045260246000fd5b1561190957565b60405162461bcd60e51b8152602060048201526014602482015273135bd9195b08191bd95cc81b9bdd08195e1a5cdd60621b6044820152606490fd5b9060048110156118645760ff80198354169116179055565b90816020910312610a4757518015158103610a475790565b1561197c57565b60405162461bcd60e51b815260206004820152601b60248201527f4d7573742068617665207665726966696564206964656e7469747900000000006044820152606490fd5b919082018092116119ce57565b634e487b7160e01b600052601160045260246000fd5b6000546001600160a01b031633036119f857565b60405163118cdaa760e01b8152336004820152602490fdfea264697066735822122074161c1226e1591eb097e6bbe37fbe16eee3f5181a3062bc37bdb4e9505cd69f64736f6c63430008180033",
  "linkReferences": {},
  "deployedLinkReferences": {}
}