{
  "_format": "hh-sol-artifact-1",
  "contractName": "SilensReputationSystem",
  "sourceName": "contracts/SilensReputationSystem.sol",
  "abi": [
    {
      "inputs": [],
      "stateMutability": "nonpayable",
      "type": "constructor"
    },
    {
      "inputs": [
        {
          "internalType": "address",
          "name": "sender",
          "type": "address"
        },
        {
          "internalType": "uint256",
          "name": "balance",
          "type": "uint256"
        },
        {
          "internalType": "uint256",
          "name": "needed",
          "type": "uint256"
        },
        {
          "internalType": "uint256",
          "name": "tokenId",
          "type": "uint256"
        }
      ],
      "name": "ERC1155InsufficientBalance",
      "type": "error"
    },
    {
      "inputs": [
        {
          "internalType": "address",
          "name": "approver",
          "type": "address"
        }
      ],
      "name": "ERC1155InvalidApprover",
      "type": "error"
    },
    {
      "inputs": [
        {
          "internalType": "uint256",
          "name": "idsLength",
          "type": "uint256"
        },
        {
          "internalType": "uint256",
          "name": "valuesLength",
          "type": "uint256"
        }
      ],
      "name": "ERC1155InvalidArrayLength",
      "type": "error"
    },
    {
      "inputs": [
        {
          "internalType": "address",
          "name": "operator",
          "type": "address"
        }
      ],
      "name": "ERC1155InvalidOperator",
      "type": "error"
    },
    {
      "inputs": [
        {
          "internalType": "address",
          "name": "receiver",
          "type": "address"
        }
      ],
      "name": "ERC1155InvalidReceiver",
      "type": "error"
    },
    {
      "inputs": [
        {
          "internalType": "address",
          "name": "sender",
          "type": "address"
        }
      ],
      "name": "ERC1155InvalidSender",
      "type": "error"
    },
    {
      "inputs": [
        {
          "internalType": "address",
          "name": "operator",
          "type": "address"
        },
        {
          "internalType": "address",
          "name": "owner",
          "type": "address"
        }
      ],
      "name": "ERC1155MissingApprovalForAll",
      "type": "error"
    },
    {
      "inputs": [
        {
          "internalType": "address",
          "name": "owner",
          "type": "address"
        }
      ],
      "name": "OwnableInvalidOwner",
      "type": "error"
    },
    {
      "inputs": [
        {
          "internalType": "address",
          "name": "account",
          "type": "address"
        }
      ],
      "name": "OwnableUnauthorizedAccount",
      "type": "error"
    },
    {
      "anonymous": false,
      "inputs": [
        {
          "indexed": true,
          "internalType": "address",
          "name": "account",
          "type": "address"
        },
        {
          "indexed": true,
          "internalType": "address",
          "name": "operator",
          "type": "address"
        },
        {
          "indexed": false,
          "internalType": "bool",
          "name": "approved",
          "type": "bool"
        }
      ],
      "name": "ApprovalForAll",
      "type": "event"
    },
    {
      "anonymous": false,
      "inputs": [
        {
          "indexed": true,
          "internalType": "address",
          "name": "user",
          "type": "address"
        },
        {
          "indexed": true,
          "internalType": "uint256",
          "name": "badgeId",
          "type": "uint256"
        },
        {
          "indexed": false,
          "internalType": "string",
          "name": "badgeName",
          "type": "string"
        },
        {
          "indexed": false,
          "internalType": "uint256",
          "name": "timestamp",
          "type": "uint256"
        }
      ],
      "name": "BadgeAwarded",
      "type": "event"
    },
    {
      "anonymous": false,
      "inputs": [
        {
          "indexed": true,
          "internalType": "address",
          "name": "previousOwner",
          "type": "address"
        },
        {
          "indexed": true,
          "internalType": "address",
          "name": "newOwner",
          "type": "address"
        }
      ],
      "name": "OwnershipTransferred",
      "type": "event"
    },
    {
      "anonymous": false,
      "inputs": [
        {
          "indexed": true,
          "internalType": "address",
          "name": "user",
          "type": "address"
        },
        {
          "indexed": false,
          "internalType": "uint256",
          "name": "newScore",
          "type": "uint256"
        },
        {
          "indexed": false,
          "internalType": "uint256",
          "name": "pointsAdded",
          "type": "uint256"
        },
        {
          "indexed": false,
          "internalType": "string",
          "name": "reason",
          "type": "string"
        }
      ],
      "name": "ReputationUpdated",
      "type": "event"
    },
    {
      "anonymous": false,
      "inputs": [
        {
          "indexed": true,
          "internalType": "address",
          "name": "operator",
          "type": "address"
        },
        {
          "indexed": true,
          "internalType": "address",
          "name": "from",
          "type": "address"
        },
        {
          "indexed": true,
          "internalType": "address",
          "name": "to",
          "type": "address"
        },
        {
          "indexed": false,
          "internalType": "uint256[]",
          "name": "ids",
          "type": "uint256[]"
        },
        {
          "indexed": false,
          "internalType": "uint256[]",
          "name": "values",
          "type": "uint256[]"
        }
      ],
      "name": "TransferBatch",
      "type": "event"
    },
    {
      "anonymous": false,
      "inputs": [
        {
          "indexed": true,
          "internalType": "address",
          "name": "operator",
          "type": "address"
        },
        {
          "indexed": true,
          "internalType": "address",
          "name": "from",
          "type": "address"
        },
        {
          "indexed": true,
          "internalType": "address",
          "name": "to",
          "type": "address"
        },
        {
          "indexed": false,
          "internalType": "uint256",
          "name": "id",
          "type": "uint256"
        },
        {
          "indexed": false,
          "internalType": "uint256",
          "name": "value",
          "type": "uint256"
        }
      ],
      "name": "TransferSingle",
      "type": "event"
    },
    {
      "anonymous": false,
      "inputs": [
        {
          "indexed": false,
          "internalType": "string",
          "name": "value",
          "type": "string"
        },
        {
          "indexed": true,
          "internalType": "uint256",
          "name": "id",
          "type": "uint256"
        }
      ],
      "name": "URI",
      "type": "event"
    },
    {
      "inputs": [],
      "name": "GOVERNANCE_VOTER",
      "outputs": [
        {
          "internalType": "uint256",
          "name": "",
          "type": "uint256"
        }
      ],
      "stateMutability": "view",
      "type": "function"
    },
    {
      "inputs": [],
      "name": "SUBMIT_POINTS",
      "outputs": [
        {
          "internalType": "uint256",
          "name": "",
          "type": "uint256"
        }
      ],
      "stateMutability": "view",
      "type": "function"
    },
    {
      "inputs": [],
      "name": "TRUSTED_REVIEWER",
      "outputs": [
        {
          "internalType": "uint256",
          "name": "",
          "type": "uint256"
        }
      ],
      "stateMutability": "view",
      "type": "function"
    },
    {
      "inputs": [],
      "name": "VERIFIED_REVIEWER",
      "outputs": [
        {
          "internalType": "uint256",
          "name": "",
          "type": "uint256"
        }
      ],
      "stateMutability": "view",
      "type": "function"
    },
    {
      "inputs": [
        {
          "internalType": "address",
          "name": "_user",
          "type": "address"
        },
        {
          "internalType": "uint256",
          "name": "_points",
          "type": "uint256"
        }
      ],
      "name": "addReputation",
      "outputs": [],
      "stateMutability": "nonpayable",
      "type": "function"
    },
    {
      "inputs": [
        {
          "internalType": "address",
          "name": "_submitter",
          "type": "address"
        }
      ],
      "name": "awardModelSubmissionPoints",
      "outputs": [],
      "stateMutability": "nonpayable",
      "type": "function"
    },
    {
      "inputs": [
        {
          "internalType": "address",
          "name": "_reviewer",
          "type": "address"
        }
      ],
      "name": "awardReviewPoints",
      "outputs": [],
      "stateMutability": "nonpayable",
      "type": "function"
    },
    {
      "inputs": [
        {
          "internalType": "address",
          "name": "account",
          "type": "address"
        },
        {
          "internalType": "uint256",
          "name": "id",
          "type": "uint256"
        }
      ],
      "name": "balanceOf",
      "outputs": [
        {
          "internalType": "uint256",
          "name": "",
          "type": "uint256"
        }
      ],
      "stateMutability": "view",
      "type": "function"
    },
    {
      "inputs": [
        {
          "internalType": "address[]",
          "name": "accounts",
          "type": "address[]"
        },
        {
          "internalType": "uint256[]",
          "name": "ids",
          "type": "uint256[]"
        }
      ],
      "name": "balanceOfBatch",
      "outputs": [
        {
          "internalType": "uint256[]",
          "name": "",
          "type": "uint256[]"
        }
      ],
      "stateMutability": "view",
      "type": "function"
    },
    {
      "inputs": [
        {
          "internalType": "address",
          "name": "_user",
          "type": "address"
        }
      ],
      "name": "checkAndAwardVerifiedBadge",
      "outputs": [],
      "stateMutability": "nonpayable",
      "type": "function"
    },
    {
      "inputs": [
        {
          "internalType": "uint256",
          "name": "id",
          "type": "uint256"
        }
      ],
      "name": "exists",
      "outputs": [
        {
          "internalType": "bool",
          "name": "",
          "type": "bool"
        }
      ],
      "stateMutability": "view",
      "type": "function"
    },
    {
      "inputs": [
        {
          "internalType": "address",
          "name": "_user",
          "type": "address"
        },
        {
          "internalType": "uint256",
          "name": "_roleId",
          "type": "uint256"
        }
      ],
      "name": "hasRole",
      "outputs": [
        {
          "internalType": "bool",
          "name": "",
          "type": "bool"
        }
      ],
      "stateMutability": "view",
      "type": "function"
    },
    {
      "inputs": [],
      "name": "identitySystem",
      "outputs": [
        {
          "internalType": "contract SilensIdentity",
          "name": "",
          "type": "address"
        }
      ],
      "stateMutability": "view",
      "type": "function"
    },
    {
      "inputs": [
        {
          "internalType": "address",
          "name": "account",
          "type": "address"
        },
        {
          "internalType": "address",
          "name": "operator",
          "type": "address"
        }
      ],
      "name": "isApprovedForAll",
      "outputs": [
        {
          "internalType": "bool",
          "name": "",
          "type": "bool"
        }
      ],
      "stateMutability": "view",
      "type": "function"
    },
    {
      "inputs": [],
      "name": "owner",
      "outputs": [
        {
          "internalType": "address",
          "name": "",
          "type": "address"
        }
      ],
      "stateMutability": "view",
      "type": "function"
    },
    {
      "inputs": [],
      "name": "renounceOwnership",
      "outputs": [],
      "stateMutability": "nonpayable",
      "type": "function"
    },
    {
      "inputs": [
        {
          "internalType": "address",
          "name": "",
          "type": "address"
        }
      ],
      "name": "reputationScores",
      "outputs": [
        {
          "internalType": "uint256",
          "name": "",
          "type": "uint256"
        }
      ],
      "stateMutability": "view",
      "type": "function"
    },
    {
      "inputs": [
        {
          "internalType": "address",
          "name": "from",
          "type": "address"
        },
        {
          "internalType": "address",
          "name": "to",
          "type": "address"
        },
        {
          "internalType": "uint256[]",
          "name": "ids",
          "type": "uint256[]"
        },
        {
          "internalType": "uint256[]",
          "name": "values",
          "type": "uint256[]"
        },
        {
          "internalType": "bytes",
          "name": "data",
          "type": "bytes"
        }
      ],
      "name": "safeBatchTransferFrom",
      "outputs": [],
      "stateMutability": "nonpayable",
      "type": "function"
    },
    {
      "inputs": [
        {
          "internalType": "address",
          "name": "from",
          "type": "address"
        },
        {
          "internalType": "address",
          "name": "to",
          "type": "address"
        },
        {
          "internalType": "uint256",
          "name": "id",
          "type": "uint256"
        },
        {
          "internalType": "uint256",
          "name": "value",
          "type": "uint256"
        },
        {
          "internalType": "bytes",
          "name": "data",
          "type": "bytes"
        }
      ],
      "name": "safeTransferFrom",
      "outputs": [],
      "stateMutability": "nonpayable",
      "type": "function"
    },
    {
      "inputs": [
        {
          "internalType": "address",
          "name": "operator",
          "type": "address"
        },
        {
          "internalType": "bool",
          "name": "approved",
          "type": "bool"
        }
      ],
      "name": "setApprovalForAll",
      "outputs": [],
      "stateMutability": "nonpayable",
      "type": "function"
    },
    {
      "inputs": [
        {
          "internalType": "address",
          "name": "_identitySystem",
          "type": "address"
        }
      ],
      "name": "setIdentitySystem",
      "outputs": [],
      "stateMutability": "nonpayable",
      "type": "function"
    },
    {
      "inputs": [
        {
          "internalType": "bytes4",
          "name": "interfaceId",
          "type": "bytes4"
        }
      ],
      "name": "supportsInterface",
      "outputs": [
        {
          "internalType": "bool",
          "name": "",
          "type": "bool"
        }
      ],
      "stateMutability": "view",
      "type": "function"
    },
    {
      "inputs": [],
      "name": "totalSupply",
      "outputs": [
        {
          "internalType": "uint256",
          "name": "",
          "type": "uint256"
        }
      ],
      "stateMutability": "view",
      "type": "function"
    },
    {
      "inputs": [
        {
          "internalType": "uint256",
          "name": "id",
          "type": "uint256"
        }
      ],
      "name": "totalSupply",
      "outputs": [
        {
          "internalType": "uint256",
          "name": "",
          "type": "uint256"
        }
      ],
      "stateMutability": "view",
      "type": "function"
    },
    {
      "inputs": [
        {
          "internalType": "address",
          "name": "newOwner",
          "type": "address"
        }
      ],
      "name": "transferOwnership",
      "outputs": [],
      "stateMutability": "nonpayable",
      "type": "function"
    },
    {
      "inputs": [
        {
          "internalType": "uint256",
          "name": "",
          "type": "uint256"
        }
      ],
      "name": "uri",
      "outputs": [
        {
          "internalType": "string",
          "name": "",
          "type": "string"
        }
      ],
      "stateMutability": "view",
      "type": "function"
    }
  ],
  "bytecode": "0x608034620001ba57606081016001600160401b03811182821017620001a457604052603281526020907f68747470733a2f2f73696c656e732d6170692e75702e7261696c7761792e617082820152713817b130b233b2b997bdb4b23e973539b7b760711b604082015260025490600191600181811c9116801562000199575b848210146200018357601f81116200014e575b50909180600260005280600020936000905b828210620001365750505001516001600160701b0319169055606560025533156200011d5760058054336001600160a01b03198216811790925560405191906001600160a01b03167f8be0079c531659141344cd1fd0a4f28419497f9722a3daafe3b4186f6b6457e0600080a3611e2b9081620001c08239f35b604051631e4fbdf760e01b815260006004820152602490fd5b848401518655948501949282019290820190620000a3565b6002600052826002601f86600020930160051c830192015b8281106200017657505062000091565b6000815501839062000166565b634e487b7160e01b600052602260045260246000fd5b90607f16906200007e565b634e487b7160e01b600052604160045260246000fd5b600080fdfe6080604052600436101561001257600080fd5b60003560e01c8062fdd58e146101b657806301ffc9a7146101b15780630e89341c146101ac57806318160ddd146101a75780632c598403146101a25780632eb2c2d61461019d5780633b58bc811461019857806340c65a4d146101935780634e1273f41461018e5780634f558e79146101895780635c97f4a21461018457806366ccea5b1461017f5780636b40a6dc1461017a578063715018a6146101755780638da5cb5b14610170578063a22cb4651461016b578063bd85b03914610166578063bfcd590c14610161578063c70555021461015c578063d71f9d0d14610157578063e24f831314610152578063e985e9c51461014d578063f242432a14610148578063f2fde38b14610143578063f7d7c9851461013e5763fe0438b21461013957600080fd5b6110b7565b610ff7565b610f69565b610e4b565b610dee565b610d39565b610b0f565b610ae6565b610aca565b610a9e565b6109e0565b6109ad565b61094c565b610930565b6108ed565b6108c4565b610896565b6107db565b61077a565b61075e565b610635565b610448565b61042a565b610321565b61025f565b610200565b600435906001600160a01b03821682036101d157565b600080fd5b602435906001600160a01b03821682036101d157565b35906001600160a01b03821682036101d157565b346101d15760403660031901126101d157602061024461021e6101bb565b6024356000526000835260406000209060018060a01b0316600052602052604060002090565b54604051908152f35b6001600160e01b03198116036101d157565b346101d15760203660031901126101d157602060043561027e8161024d565b63ffffffff60e01b16636cdb3d1360e11b81149081156102bc575b81156102ab575b506040519015158152f35b6301ffc9a760e01b149050386102a0565b6303a24d0760e21b81149150610299565b919082519283825260005b8481106102f9575050826000602080949584010152601f8019910116010190565b6020818301810151848301820152016102d8565b90602061031e9281815201906102cd565b90565b346101d1576020806003193601126101d157604051906000906002546001918160011c9260018316928315610420575b60208510841461040c5784875260208701939081156103ed5750600114610393575b61038f8661038381880382610533565b6040519182918261030d565b0390f35b6002600090815294509192917f405787fa12a823e0f2b7631cc41b3ba8828b3321ca811111fa75cd3aa3bb5ace5b8386106103dc57505050910190506103838261038f38610373565b8054858701529482019481016103c1565b60ff1916845250505090151560051b0190506103838261038f38610373565b634e487b7160e01b86526022600452602486fd5b93607f1693610351565b346101d15760003660031901126101d1576020600454604051908152f35b346101d15760203660031901126101d1576104616101bb565b61046961129d565b6001600160a01b038116600081815260066020526040812080549093919290600581019081106105095761050693945580845260066020527f4146a620f234be49686701963664655b5fb451997f8462f773d272d68f17043f6104fe60408620546040519182918260a09181526005602082015260606040820152600660608201526552657669657760d01b60808201520190565b0390a26112c9565b80f35b634e487b7160e01b84526011600452602484fd5b634e487b7160e01b600052604160045260246000fd5b90601f8019910116810190811067ffffffffffffffff82111761055557604052565b61051d565b67ffffffffffffffff81116105555760051b60200190565b9080601f830112156101d157602090823561058c8161055a565b9361059a6040519586610533565b81855260208086019260051b8201019283116101d157602001905b8282106105c3575050505090565b813581529083019083016105b5565b67ffffffffffffffff811161055557601f01601f191660200190565b81601f820112156101d157803590610605826105d2565b926106136040519485610533565b828452602083830101116101d157816000926020809301838601378301015290565b346101d15760a03660031901126101d15761064e6101bb565b6106566101d6565b906044359167ffffffffffffffff908184116101d15761067b60049436908601610572565b906064358381116101d1576106939036908701610572565b926084359081116101d1576106ab90369087016105ee565b936001600160a01b0380821690338214158061073a575b61070d578316156106f557156106de576106dc9550611657565b005b604051626a0d4560e21b8152600081880152602490fd5b604051632bfa23e760e11b8152600081890152602490fd5b6040805163711bec9160e11b815233818b019081526001600160a01b038616602082015290918291010390fd5b50600082815260016020908152604080832033845290915290205460ff16156106c2565b346101d15760003660031901126101d157602060405160038152f35b346101d15760003660031901126101d157602060405160018152f35b90815180825260208080930193019160005b8281106107b6575050505090565b8351855293810193928101926001016107a8565b90602061031e928181520190610796565b346101d15760403660031901126101d15760043567ffffffffffffffff8082116101d157366023830112156101d15781600401356108188161055a565b926108266040519485610533565b8184526020916024602086019160051b830101913683116101d157602401905b82821061087f57856024358681116101d15761038f9161086d610873923690600401610572565b9061113e565b604051918291826107ca565b83809161088b846101ec565b815201910190610846565b346101d15760203660031901126101d157600435600052600360205260206040600020541515604051908152f35b346101d15760403660031901126101d15760206108e261021e6101bb565b541515604051908152f35b346101d15760203660031901126101d1576109066101bb565b61090e61129d565b600780546001600160a01b0319166001600160a01b0392909216919091179055005b346101d15760003660031901126101d157602060405160028152f35b346101d1576000806003193601126109aa5761096661129d565b600580546001600160a01b0319811690915581906001600160a01b03167f8be0079c531659141344cd1fd0a4f28419497f9722a3daafe3b4186f6b6457e08280a380f35b80fd5b346101d15760003660031901126101d1576005546040516001600160a01b039091168152602090f35b801515036101d157565b346101d15760403660031901126101d1576109f96101bb565b602435610a05816109d6565b6001600160a01b038216918215610a86573360009081526001602090815260408083206001600160a01b0390941683529290522060ff1981541660ff831515161790557f17307eab39ab6107e8899845ad3d59bd9653f200f220920489ca2b5937696c3160405180610a81339482919091602081019215159052565b0390a3005b60405162ced3e160e81b815260006004820152602490fd5b346101d15760203660031901126101d15760043560005260036020526020604060002054604051908152f35b346101d15760003660031901126101d157602060405160058152f35b346101d15760003660031901126101d1576007546040516001600160a01b039091168152602090f35b346101d1576020806003193601126101d157610b296101bb565b6007549091906001600160a01b031660405163237f1a2160e01b81526001600160a01b03841660048201528281602481855afa8015610ce857610b7491600091610d0c575b5061121e565b60405163232eadf960e21b81526001600160a01b03841660048201528281602481855afa8015610ce857610bcd928492600092610ced575b5060405180809581946343cd031f60e01b8352600483019190602083019252565b03915afa908115610ce857600192600092610cbb575b5050101580610c6c575b610bf357005b600190610c07610c01611279565b8261146d565b7f4af14860ccc97534a4bda9540224342a0af14f8e6db391ea52643a091d967fdc60405191838060a01b03169180610a81428291906040835260116040840152702b32b934b334b2b2102932bb34b2bbb2b960791b6060840152602060808401930152565b5060016000908152602052610cb4817fada5013122d395ba3c54772283fb069b10426056ef8ca54750cb9bb552a59e7d5b9060018060a01b0316600052602052604060002090565b5415610bed565b610cda9250803d10610ce1575b610cd28183610533565b81019061126a565b3880610be3565b503d610cc8565b611212565b610d05919250833d8511610ce157610cd28183610533565b9038610bac565b610d2c9150843d8611610d32575b610d248183610533565b8101906111fd565b38610b6e565b503d610d1a565b346101d15760403660031901126101d157610d526101bb565b61050660243591610d6161129d565b60018060a01b0381167f4146a620f234be49686701963664655b5fb451997f8462f773d272d68f17043f60a0600095838752600660205260408720610da78282546110f1565b90558387526006602052604087205490604051918252602082015260606040820152600f60608201526e26b0b73ab0b61020b23234ba34b7b760891b6080820152a26112c9565b346101d15760403660031901126101d157602060ff610e3f610e0e6101bb565b610e166101d6565b6001600160a01b0391821660009081526001865260408082209290931681526020919091522090565b54166040519015158152f35b346101d15760a03660031901126101d157610e646101bb565b610e6c6101d6565b60843567ffffffffffffffff81116101d157610e8c9036906004016105ee565b906001600160a01b03838116903382141580610f45575b610f1e57821615610f055715610eed576106dc92610ee56064356044359160405192600184526020840152604083019160018352606084015260808301604052565b929091611657565b604051626a0d4560e21b815260006004820152602490fd5b604051632bfa23e760e11b815260006004820152602490fd5b60405163711bec9160e11b81523360048201526001600160a01b0386166024820152604490fd5b50600082815260016020908152604080832033845290915290205460ff1615610ea3565b346101d15760203660031901126101d157610f826101bb565b610f8a61129d565b6001600160a01b03908116908115610fde57600554826bffffffffffffffffffffffff60a01b821617600555167f8be0079c531659141344cd1fd0a4f28419497f9722a3daafe3b4186f6b6457e0600080a3005b604051631e4fbdf760e01b815260006004820152602490fd5b346101d15760203660031901126101d1576110106101bb565b61101861129d565b6001600160a01b038116600081815260066020526040812080549093919290600581019081106105095761050693945580845260066020527f4146a620f234be49686701963664655b5fb451997f8462f773d272d68f17043f6104fe60408620546040519182918260a09181526005602082015260606040820152601060608201526f26b7b232b61029bab136b4b9b9b4b7b760811b60808201520190565b346101d15760203660031901126101d1576001600160a01b036110d86101bb565b1660005260066020526020604060002054604051908152f35b919082018092116110fe57565b634e487b7160e01b600052601160045260246000fd5b80518210156111285760209160051b010190565b634e487b7160e01b600052603260045260246000fd5b919091805183518082036111db57505080519061117361115d8361055a565b9261116b6040519485610533565b80845261055a565b60209190601f1901368484013760005b81518110156111d357600581901b8281018401519087018401516000908152602081815260408083206001600160a01b0390941683529290522054600191906111cc8287611114565b5201611183565b509193505050565b604051635b05999160e01b815260048101919091526024810191909152604490fd5b908160209103126101d1575161031e816109d6565b6040513d6000823e3d90fd5b1561122557565b60405162461bcd60e51b815260206004820152601760248201527f55736572206d7573742068617665206964656e746974790000000000000000006044820152606490fd5b908160209103126101d1575190565b604051906020820182811067ffffffffffffffff8211176105555760405260008252565b6005546001600160a01b031633036112b157565b60405163118cdaa760e01b8152336004820152602490fd5b6001600160a01b038116600090815260066020526040902060649054603281101580611431575b6113b8575b10158061137c575b6113045750565b600390611318611312611279565b826114eb565b604080518181526010918101919091526f23b7bb32b93730b731b2902b37ba32b960811b60608201524260208201526001600160a01b0391909116907f4af14860ccc97534a4bda9540224342a0af14f8e6db391ea52643a091d967fdc90608090a3565b50600360009081526020526113b1817f101e368776582e57ab3d116ffe2517c0a585cd5b23174b01e275c2d8329c3d83610c9d565b54156112fd565b6113c96113c3611279565b846114ad565b604080518181526010918101919091526f2a393ab9ba32b2102932bb34b2bbb2b960811b60608201524260208201526002906001600160a01b038516907f4af14860ccc97534a4bda9540224342a0af14f8e6db391ea52643a091d967fdc90608090a36112f5565b5060026000908152602052611466837fabbb5caa7dda850e60932de0934eb1f9d0f59695050f761dc64e443e5030a569610c9d565b54156112f0565b906001600160a01b03821615610f05576114ab9160405160018152600160208201526040810191600183526001606083015260808201604052611525565b565b906001600160a01b03821615610f05576114ab9160405160018152600260208201526040810191600183526001606083015260808201604052611525565b906001600160a01b03821615610f05576114ab91604051600181526003602082015260408101916001835260016060830152608082016040525b93919091611534828487611b33565b600094855b84518710156115875761157f6001918860051b9061156d602080848a010151938a0101516000526003602052604060002090565b6115788382546110f1565b90556110f1565b960195611539565b6115a191959492965061159c906004546110f1565b600455565b6001600160a01b03841615806115f4575b156115be575b50505050565b80516001036115e557906020806115dc959301519101519133611aa2565b388080806115b8565b6115ef93336118a8565b6115dc565b9360009591936000965b855188101561163e576001908860051b9061162f602080848a010151938a0101516000526003602052604060002090565b828154039055019701966115fe565b611652919593975095919560045403600455565b6115b2565b919392906001600160a01b03808416158080156117dc575b156117975761168084888588611c4e565b611733575b811615806116d2575b1561169b575b5050505050565b84516001036116c1576020806116b79601519201519233611ad7565b3880808080611694565b6116cd949192336119a3565b6116b7565b94936000939091845b865186101561171b576001908660051b9061170c602080848a010151938b0101516000526003602052604060002090565b828154039055019501946116db565b61172e9193969792955060045403600455565b61168e565b959192600094916000955b875187101561177a576117726001918860051b9061156d602080848c010151938d0101516000526003602052604060002090565b96019561173e565b6117929193965061159c9098929594986004546110f1565b611685565b60405162461bcd60e51b815260206004820152601b60248201527f42616467657320617265206e6f6e2d7472616e7366657261626c6500000000006044820152606490fd5b508183161561166f565b908160209103126101d1575161031e8161024d565b9261182a61031e95936118389360018060a01b031686526000602087015260a0604087015260a0860190610796565b908482036060860152610796565b9160808184039101526102cd565b939061031e959361182a916118389460018060a01b03809216885216602087015260a0604087015260a0860190610796565b3d156118a3573d90611889826105d2565b916118976040519384610533565b82523d6000602084013e565b606090565b9293919093843b6118ba575050505050565b6020916118dd604051948593849363bc197c8160e01b98898652600486016117fb565b038160006001600160a01b0388165af160009181611972575b506119355782611904611878565b805191908261192e57604051632bfa23e760e11b81526001600160a01b0383166004820152602490fd5b9050602001fd5b6001600160e01b0319160361194f57503880808080611694565b604051632bfa23e760e11b81526001600160a01b03919091166004820152602490fd5b61199591925060203d60201161199c575b61198d8183610533565b8101906117e6565b90386118f6565b503d611983565b939290949194853b6119b8575b505050505050565b6119db602093604051958694859463bc197c8160e01b998a875260048701611846565b038160006001600160a01b0388165af160009181611a1d575b50611a025782611904611878565b6001600160e01b0319160361194f57503880808080806119b0565b611a3791925060203d60201161199c5761198d8183610533565b90386119f4565b909260a09261031e9594600180861b03168352600060208401526040830152606082015281608082015201906102cd565b919261031e95949160a094600180871b0380921685521660208401526040830152606082015281608082015201906102cd565b9293919093843b611ab4575050505050565b6020916118dd604051948593849363f23a6e6160e01b9889865260048601611a3e565b939290949194853b611aeb57505050505050565b6119db602093604051958694859463f23a6e6160e01b998a875260048701611a6f565b9091611b2561031e93604084526040840190610796565b916020818403910152610796565b91909182518251908181036111db57505060005b8351811015611bae57600581901b84810160209081015191850101516001929184906001600160a01b038216611b81575b50505001611b47565b611ba491610c9d611b9c926000526000602052604060002090565b9182546110f1565b9055388381611b78565b50916001815114600014611c0f576020908101519181015160408051938452918301526001600160a01b039092169160009133917fc3d58168c5ae7397731d063d5bbf3d657854427343f4c083240f7aacaa2d0f629190819081015b0390a4565b7f4a39dc06d4c0dbc64b70af90fd698a233a518aa5d07e595d983b8c0526c8f7fb611c0a6000939460405191829160018060a01b031696339583611b0e565b93929180518351908181036111db57505060005b8151811015611d5057600581901b82810160209081015191860101516001600160a01b0392918590898516611cca575b6001948216611ca5575b50505001611c62565b611cc091610c9d611b9c926000526000602052604060002090565b9055388481611c9c565b9192939050611ce789610c9d846000526000602052604060002090565b54838110611d195791869184600196959403611d118c610c9d856000526000602052604060002090565b559450611c92565b6040516303dee4c560e01b81526001600160a01b038b16600482015260248101919091526044810184905260648101839052608490fd5b508051939493919291600103611db2576020908101519181015160408051938452918301526001600160a01b03928316939092169133917fc3d58168c5ae7397731d063d5bbf3d657854427343f4c083240f7aacaa2d0f629181908101611c0a565b6040516001600160a01b03938416949093169233927f4a39dc06d4c0dbc64b70af90fd698a233a518aa5d07e595d983b8c0526c8f7fb928291611c0a9183611b0e56fea2646970667358221220e5d57e2c4b1814abe6baed2e94d2ff43f6e1a3c9077b8d1d28d43512394c6ab564736f6c63430008180033",
  "linkReferences": {},
  "deployedLinkReferences": {}
}