{
  "_format": "hh-sol-artifact-1",
  "contractName": "SilensIdentity",
  "sourceName": "contracts/SilensIdentity.sol",
  "abi": [
    {
      "inputs": [],
      "stateMutability": "nonpayable",
      "type": "constructor"
    },
    {
      "inputs": [],
      "name": "ECDSAInvalidSignature",
      "type": "error"
    },
    {
      "inputs": [
        {
          "internalType": "uint256",
          "name": "length",
          "type": "uint256"
        }
      ],
      "name": "ECDSAInvalidSignatureLength",
      "type": "error"
    },
    {
      "inputs": [
        {
          "internalType": "bytes32",
          "name": "s",
          "type": "bytes32"
        }
      ],
      "name": "ECDSAInvalidSignatureS",
      "type": "error"
    },
    {
      "inputs": [
        {
          "internalType": "address",
          "name": "sender",
          "type": "address"
        },
        {
          "internalType": "uint256",
          "name": "tokenId",
          "type": "uint256"
        },
        {
          "internalType": "address",
          "name": "owner",
          "type": "address"
        }
      ],
      "name": "ERC721IncorrectOwner",
      "type": "error"
    },
    {
      "inputs": [
        {
          "internalType": "address",
          "name": "operator",
          "type": "address"
        },
        {
          "internalType": "uint256",
          "name": "tokenId",
          "type": "uint256"
        }
      ],
      "name": "ERC721InsufficientApproval",
      "type": "error"
    },
    {
      "inputs": [
        {
          "internalType": "address",
          "name": "approver",
          "type": "address"
        }
      ],
      "name": "ERC721InvalidApprover",
      "type": "error"
    },
    {
      "inputs": [
        {
          "internalType": "address",
          "name": "operator",
          "type": "address"
        }
      ],
      "name": "ERC721InvalidOperator",
      "type": "error"
    },
    {
      "inputs": [
        {
          "internalType": "address",
          "name": "owner",
          "type": "address"
        }
      ],
      "name": "ERC721InvalidOwner",
      "type": "error"
    },
    {
      "inputs": [
        {
          "internalType": "address",
          "name": "receiver",
          "type": "address"
        }
      ],
      "name": "ERC721InvalidReceiver",
      "type": "error"
    },
    {
      "inputs": [
        {
          "internalType": "address",
          "name": "sender",
          "type": "address"
        }
      ],
      "name": "ERC721InvalidSender",
      "type": "error"
    },
    {
      "inputs": [
        {
          "internalType": "uint256",
          "name": "tokenId",
          "type": "uint256"
        }
      ],
      "name": "ERC721NonexistentToken",
      "type": "error"
    },
    {
      "inputs": [
        {
          "internalType": "address",
          "name": "owner",
          "type": "address"
        }
      ],
      "name": "OwnableInvalidOwner",
      "type": "error"
    },
    {
      "inputs": [
        {
          "internalType": "address",
          "name": "account",
          "type": "address"
        }
      ],
      "name": "OwnableUnauthorizedAccount",
      "type": "error"
    },
    {
      "anonymous": false,
      "inputs": [
        {
          "indexed": true,
          "internalType": "address",
          "name": "owner",
          "type": "address"
        },
        {
          "indexed": true,
          "internalType": "address",
          "name": "approved",
          "type": "address"
        },
        {
          "indexed": true,
          "internalType": "uint256",
          "name": "tokenId",
          "type": "uint256"
        }
      ],
      "name": "Approval",
      "type": "event"
    },
    {
      "anonymous": false,
      "inputs": [
        {
          "indexed": true,
          "internalType": "address",
          "name": "owner",
          "type": "address"
        },
        {
          "indexed": true,
          "internalType": "address",
          "name": "operator",
          "type": "address"
        },
        {
          "indexed": false,
          "internalType": "bool",
          "name": "approved",
          "type": "bool"
        }
      ],
      "name": "ApprovalForAll",
      "type": "event"
    },
    {
      "anonymous": false,
      "inputs": [
        {
          "indexed": true,
          "internalType": "address",
          "name": "owner",
          "type": "address"
        },
        {
          "indexed": true,
          "internalType": "uint256",
          "name": "tokenId",
          "type": "uint256"
        },
        {
          "indexed": false,
          "internalType": "string",
          "name": "uri",
          "type": "string"
        },
        {
          "indexed": false,
          "internalType": "uint256",
          "name": "timestamp",
          "type": "uint256"
        }
      ],
      "name": "IdentityMinted",
      "type": "event"
    },
    {
      "anonymous": false,
      "inputs": [
        {
          "indexed": true,
          "internalType": "address",
          "name": "previousOwner",
          "type": "address"
        },
        {
          "indexed": true,
          "internalType": "address",
          "name": "newOwner",
          "type": "address"
        }
      ],
      "name": "OwnershipTransferred",
      "type": "event"
    },
    {
      "anonymous": false,
      "inputs": [
        {
          "indexed": true,
          "internalType": "uint256",
          "name": "tokenId",
          "type": "uint256"
        },
        {
          "indexed": false,
          "internalType": "string",
          "name": "platform",
          "type": "string"
        },
        {
          "indexed": false,
          "internalType": "string",
          "name": "username",
          "type": "string"
        },
        {
          "indexed": true,
          "internalType": "address",
          "name": "owner",
          "type": "address"
        },
        {
          "indexed": false,
          "internalType": "uint256",
          "name": "timestamp",
          "type": "uint256"
        }
      ],
      "name": "PlatformVerified",
      "type": "event"
    },
    {
      "anonymous": false,
      "inputs": [
        {
          "indexed": true,
          "internalType": "uint256",
          "name": "id",
          "type": "uint256"
        },
        {
          "indexed": false,
          "internalType": "bytes32",
          "name": "identitiesRoot",
          "type": "bytes32"
        }
      ],
      "name": "SetIdentitiesRoot",
      "type": "event"
    },
    {
      "anonymous": false,
      "inputs": [
        {
          "indexed": true,
          "internalType": "address",
          "name": "from",
          "type": "address"
        },
        {
          "indexed": true,
          "internalType": "address",
          "name": "to",
          "type": "address"
        },
        {
          "indexed": true,
          "internalType": "uint256",
          "name": "tokenId",
          "type": "uint256"
        }
      ],
      "name": "Transfer",
      "type": "event"
    },
    {
      "inputs": [],
      "name": "IERC7231_ID",
      "outputs": [
        {
          "internalType": "bytes4",
          "name": "",
          "type": "bytes4"
        }
      ],
      "stateMutability": "view",
      "type": "function"
    },
    {
      "inputs": [
        {
          "internalType": "address",
          "name": "to",
          "type": "address"
        },
        {
          "internalType": "uint256",
          "name": "tokenId",
          "type": "uint256"
        }
      ],
      "name": "approve",
      "outputs": [],
      "stateMutability": "nonpayable",
      "type": "function"
    },
    {
      "inputs": [
        {
          "internalType": "address",
          "name": "owner",
          "type": "address"
        }
      ],
      "name": "balanceOf",
      "outputs": [
        {
          "internalType": "uint256",
          "name": "",
          "type": "uint256"
        }
      ],
      "stateMutability": "view",
      "type": "function"
    },
    {
      "inputs": [
        {
          "internalType": "uint256",
          "name": "tokenId",
          "type": "uint256"
        }
      ],
      "name": "getApproved",
      "outputs": [
        {
          "internalType": "address",
          "name": "",
          "type": "address"
        }
      ],
      "stateMutability": "view",
      "type": "function"
    },
    {
      "inputs": [
        {
          "internalType": "uint256",
          "name": "id",
          "type": "uint256"
        }
      ],
      "name": "getIdentitiesRoot",
      "outputs": [
        {
          "internalType": "bytes32",
          "name": "",
          "type": "bytes32"
        }
      ],
      "stateMutability": "view",
      "type": "function"
    },
    {
      "inputs": [
        {
          "internalType": "address",
          "name": "_address",
          "type": "address"
        }
      ],
      "name": "getTokenIdByAddress",
      "outputs": [
        {
          "internalType": "uint256",
          "name": "",
          "type": "uint256"
        }
      ],
      "stateMutability": "view",
      "type": "function"
    },
    {
      "inputs": [
        {
          "internalType": "uint256",
          "name": "tokenId",
          "type": "uint256"
        }
      ],
      "name": "getVerifiedPlatformCount",
      "outputs": [
        {
          "internalType": "uint256",
          "name": "",
          "type": "uint256"
        }
      ],
      "stateMutability": "view",
      "type": "function"
    },
    {
      "inputs": [
        {
          "internalType": "address",
          "name": "_address",
          "type": "address"
        }
      ],
      "name": "hasIdentity",
      "outputs": [
        {
          "internalType": "bool",
          "name": "",
          "type": "bool"
        }
      ],
      "stateMutability": "view",
      "type": "function"
    },
    {
      "inputs": [
        {
          "internalType": "address",
          "name": "owner",
          "type": "address"
        },
        {
          "internalType": "address",
          "name": "operator",
          "type": "address"
        }
      ],
      "name": "isApprovedForAll",
      "outputs": [
        {
          "internalType": "bool",
          "name": "",
          "type": "bool"
        }
      ],
      "stateMutability": "view",
      "type": "function"
    },
    {
      "inputs": [
        {
          "internalType": "uint256",
          "name": "tokenId",
          "type": "uint256"
        },
        {
          "internalType": "string",
          "name": "platform",
          "type": "string"
        }
      ],
      "name": "isPlatformVerified",
      "outputs": [
        {
          "internalType": "bool",
          "name": "",
          "type": "bool"
        }
      ],
      "stateMutability": "view",
      "type": "function"
    },
    {
      "inputs": [
        {
          "internalType": "string",
          "name": "_uri",
          "type": "string"
        }
      ],
      "name": "mintIdentity",
      "outputs": [
        {
          "internalType": "uint256",
          "name": "",
          "type": "uint256"
        }
      ],
      "stateMutability": "nonpayable",
      "type": "function"
    },
    {
      "inputs": [],
      "name": "name",
      "outputs": [
        {
          "internalType": "string",
          "name": "",
          "type": "string"
        }
      ],
      "stateMutability": "view",
      "type": "function"
    },
    {
      "inputs": [],
      "name": "owner",
      "outputs": [
        {
          "internalType": "address",
          "name": "",
          "type": "address"
        }
      ],
      "stateMutability": "view",
      "type": "function"
    },
    {
      "inputs": [
        {
          "internalType": "uint256",
          "name": "tokenId",
          "type": "uint256"
        }
      ],
      "name": "ownerOf",
      "outputs": [
        {
          "internalType": "address",
          "name": "",
          "type": "address"
        }
      ],
      "stateMutability": "view",
      "type": "function"
    },
    {
      "inputs": [],
      "name": "renounceOwnership",
      "outputs": [],
      "stateMutability": "nonpayable",
      "type": "function"
    },
    {
      "inputs": [
        {
          "internalType": "address",
          "name": "from",
          "type": "address"
        },
        {
          "internalType": "address",
          "name": "to",
          "type": "address"
        },
        {
          "internalType": "uint256",
          "name": "tokenId",
          "type": "uint256"
        }
      ],
      "name": "safeTransferFrom",
      "outputs": [],
      "stateMutability": "nonpayable",
      "type": "function"
    },
    {
      "inputs": [
        {
          "internalType": "address",
          "name": "from",
          "type": "address"
        },
        {
          "internalType": "address",
          "name": "to",
          "type": "address"
        },
        {
          "internalType": "uint256",
          "name": "tokenId",
          "type": "uint256"
        },
        {
          "internalType": "bytes",
          "name": "data",
          "type": "bytes"
        }
      ],
      "name": "safeTransferFrom",
      "outputs": [],
      "stateMutability": "nonpayable",
      "type": "function"
    },
    {
      "inputs": [
        {
          "internalType": "address",
          "name": "operator",
          "type": "address"
        },
        {
          "internalType": "bool",
          "name": "approved",
          "type": "bool"
        }
      ],
      "name": "setApprovalForAll",
      "outputs": [],
      "stateMutability": "nonpayable",
      "type": "function"
    },
    {
      "inputs": [
        {
          "internalType": "uint256",
          "name": "id",
          "type": "uint256"
        },
        {
          "internalType": "bytes32",
          "name": "identitiesRoot",
          "type": "bytes32"
        }
      ],
      "name": "setIdentitiesRoot",
      "outputs": [],
      "stateMutability": "nonpayable",
      "type": "function"
    },
    {
      "inputs": [
        {
          "internalType": "bytes4",
          "name": "interfaceId",
          "type": "bytes4"
        }
      ],
      "name": "supportsInterface",
      "outputs": [
        {
          "internalType": "bool",
          "name": "",
          "type": "bool"
        }
      ],
      "stateMutability": "view",
      "type": "function"
    },
    {
      "inputs": [],
      "name": "symbol",
      "outputs": [
        {
          "internalType": "string",
          "name": "",
          "type": "string"
        }
      ],
      "stateMutability": "view",
      "type": "function"
    },
    {
      "inputs": [
        {
          "internalType": "uint256",
          "name": "tokenId",
          "type": "uint256"
        }
      ],
      "name": "tokenURI",
      "outputs": [
        {
          "internalType": "string",
          "name": "",
          "type": "string"
        }
      ],
      "stateMutability": "view",
      "type": "function"
    },
    {
      "inputs": [
        {
          "internalType": "address",
          "name": "from",
          "type": "address"
        },
        {
          "internalType": "address",
          "name": "to",
          "type": "address"
        },
        {
          "internalType": "uint256",
          "name": "tokenId",
          "type": "uint256"
        }
      ],
      "name": "transferFrom",
      "outputs": [],
      "stateMutability": "nonpayable",
      "type": "function"
    },
    {
      "inputs": [
        {
          "internalType": "address",
          "name": "newOwner",
          "type": "address"
        }
      ],
      "name": "transferOwnership",
      "outputs": [],
      "stateMutability": "nonpayable",
      "type": "function"
    },
    {
      "inputs": [
        {
          "internalType": "uint256",
          "name": "id",
          "type": "uint256"
        },
        {
          "internalType": "address",
          "name": "nftOwnerAddress",
          "type": "address"
        },
        {
          "internalType": "string[]",
          "name": "userIDs",
          "type": "string[]"
        },
        {
          "internalType": "bytes32",
          "name": "identitiesRoot",
          "type": "bytes32"
        },
        {
          "internalType": "bytes",
          "name": "signature",
          "type": "bytes"
        }
      ],
      "name": "verifyIdentitiesBinding",
      "outputs": [
        {
          "internalType": "bool",
          "name": "",
          "type": "bool"
        }
      ],
      "stateMutability": "view",
      "type": "function"
    },
    {
      "inputs": [
        {
          "internalType": "uint256",
          "name": "tokenId",
          "type": "uint256"
        },
        {
          "internalType": "string",
          "name": "platform",
          "type": "string"
        },
        {
          "internalType": "string",
          "name": "username",
          "type": "string"
        },
        {
          "internalType": "bytes",
          "name": "signature",
          "type": "bytes"
        }
      ],
      "name": "verifyPlatformOwnership",
      "outputs": [],
      "stateMutability": "nonpayable",
      "type": "function"
    }
  ],
  "bytecode": "0x6080346200037a576001600160401b039060408181018381118382101762000364578152600f82526020916e53696c656e73204964656e7469747960881b8382015281519382850185811082821117620003645783526002855261534960f01b84860152815181811162000364576000948554916001948584811c9416801562000359575b8385101462000345578190601f94858111620002f2575b5083908583116001146200028e57899262000282575b5050600019600383901b1c191690851b1786555b86519283116200026e5783548481811c9116801562000263575b828210146200024f5782811162000207575b5080918311600114620001a057508495829394959262000194575b5050600019600383901b1c191690821b1790555b33156200017c5760068054336001600160a01b03198216811790925591519290916001600160a01b0316907f8be0079c531659141344cd1fd0a4f28419497f9722a3daafe3b4186f6b6457e09080a3611bfd9081620003808239f35b51631e4fbdf760e01b81526004810191909152602490fd5b0151905038806200010c565b90601f198316968487528287209287905b898210620001ef575050838596979810620001d5575b505050811b01905562000120565b015160001960f88460031b161c19169055388080620001c7565b808785968294968601518155019501930190620001b1565b8487528187208380860160051c82019284871062000245575b0160051c019085905b82811062000239575050620000f1565b88815501859062000229565b9250819262000220565b634e487b7160e01b87526022600452602487fd5b90607f1690620000df565b634e487b7160e01b86526041600452602486fd5b015190503880620000b1565b898052848a208894509190601f1984168b5b87828210620002db5750508411620002c1575b505050811b018655620000c5565b015160001960f88460031b161c19169055388080620002b3565b8385015186558b97909501949384019301620002a0565b9091508880528389208580850160051c8201928686106200033b575b918991869594930160051c01915b8281106200032c5750506200009b565b8b81558594508991016200031c565b925081926200030e565b634e487b7160e01b88526022600452602488fd5b93607f169362000084565b634e487b7160e01b600052604160045260246000fd5b600080fdfe6080604081815260048036101561001557600080fd5b600092833560e01c90816301ffc9a7146113585750806306fdde03146112a7578063081812fc1461126c578063095ea7b3146111905780630eb48e9e14610f495780631c453c6514610c49578063237f1a2114610c0f57806323b872dd14610bf757806342842e0e14610ba857806343cd031f146109f157806345692b82146109b65780634cb0345c146109945780636352211e146109635780636aee318c146106dd57806370a0823114610688578063715018a61461062b5780638cbab7e4146105f35780638da5cb5b146105ca57806395d89b41146104eb578063a22cb4651461044e578063b88d4fde146103f7578063c87b56dd146102fe578063e317598e14610290578063e985e9c51461023e578063f2fde38b146101af5763ff30a1181461014157600080fd5b346101ab57816003193601126101ab5760207f21b5a040ca6f61b8bcacb8f423e25ce46e88932f887ce92e60343369c20ec06f9135926024359061019761018786611a0f565b6001600160a01b0316331461158b565b84865260078352818187205551908152a280f35b8280fd5b50346101ab5760203660031901126101ab576101c9611426565b906101d2611a4a565b6001600160a01b03918216928315610228575050600654826bffffffffffffffffffffffff60a01b821617600655167f8be0079c531659141344cd1fd0a4f28419497f9722a3daafe3b4186f6b6457e08380a380f35b51631e4fbdf760e01b8152908101849052602490fd5b50503461028c578060031936011261028c5760ff8160209361025e611426565b610266611441565b6001600160a01b0391821683526005875283832091168252855220549151911615158152f35b5080fd5b50346101ab57816003193601126101ab5760243567ffffffffffffffff81116102fa57602060ff928482966102cb6102e695369085016114fe565b92358152600a845220828651948386809551938492016113de565b820190815203019020541690519015158152f35b8380fd5b5090346101ab57602091826003193601126102fa57356103306001600160a01b0361032883611a0f565b161515611862565b83526009825280832081519384918181549061034b82611551565b92838652600192886001821691826000146103cd57505060011461038f575b858861038b8961037c848a0385611489565b51928284938452830190611401565b0390f35b87945081939291528383205b8284106103b5575050508201018161037c61038b3861036a565b8054848a01860152889550879490930192810161039b565b60ff19168882015294151560051b8701909401945085935061037c925061038b915038905061036a565b83823461028c57608036600319011261028c57610412611426565b61041a611441565b9060643567ffffffffffffffff811161044a576104479361043d913691016114fe565b91604435916118a5565b80f35b8480fd5b5090346101ab57806003193601126101ab57610468611426565b906024359182151580930361044a576001600160a01b03169283156104d65750338452600560205280842083855260205280842060ff1981541660ff8416179055519081527f17307eab39ab6107e8899845ad3d59bd9653f200f220920489ca2b5937696c3160203392a380f35b836024925191630b61174360e31b8352820152fd5b8284346105c757806003193601126105c75781519182826001936001549461051286611551565b91828552602096876001821691826000146105a0575050600114610544575b50505061038b929161037c910385611489565b9190869350600183527fb10e2d527612073b26eecdfd717e6a320cf44b4afac2b0732d9fcbe2b7fa0cf65b828410610588575050508201018161037c61038b610531565b8054848a01860152889550879490930192810161056f565b60ff19168782015293151560051b8601909301935084925061037c915061038b9050610531565b80fd5b50503461028c578160031936011261028c5760065490516001600160a01b039091168152602090f35b50503461028c57602036600319011261028c5760209181906001600160a01b0361061b611426565b1681526008845220549051908152f35b83346105c757806003193601126105c757610644611a4a565b600680546001600160a01b0319811690915581906001600160a01b03167f8be0079c531659141344cd1fd0a4f28419497f9722a3daafe3b4186f6b6457e08280a380f35b5091346105c75760203660031901126105c7576001600160a01b036106ab611426565b169283156106c85750806020938392526003845220549051908152f35b91516322718ad960e21b815291820152602490fd5b5082903461028c5760a036600319011261028c578035926106fc611441565b906044359367ffffffffffffffff80861161028c573660238701121561028c578585013590602492818311610951578260051b926020988651916107428b870184611489565b82528982018681968301019136831161044a57878101915b838310610927575050505060643593608435948486116102fa57366023870112156102fa57858a01359485116102fa57368786880101116102fa5761079e8c611a0f565b6001600160a01b03998a169a908a168b90036108e5578c855260078c528189862054036108a357508751809c8c82019460a083019186528c8b840152608060608401525180915260c0808301928260051b0101939186905b82821061087757505050509261086094928c61082d8161086f9e9f956108669b9a986080603c98015203601f198101835282611489565b5190207f19457468657265756d205369676e6564204d6573736167653a0a3332000000008252601c5220933692016114c7565b90611a76565b90959195611ab2565b519216148152f35b909192948f8f610895600193829360bf199082030186528951611401565b9701920192019092916107f6565b885162461bcd60e51b81529081018c90526018818901527f4964656e74697469657320726f6f74206d69736d6174636800000000000000006044820152606490fd5b885162461bcd60e51b81529081018c9052601a818901527f41646472657373206973206e6f7420746f6b656e206f776e65720000000000006044820152606490fd5b823587811161094d578d9161094283928c36918701016114fe565b81520192019161075a565b8680fd5b634e487b7160e01b8152604187528390fd5b5091346105c75760203660031901126105c7575061098360209235611a0f565b90516001600160a01b039091168152f35b50503461028c578160031936011261028c575163685bdd8b60e11b8152602090f35b50346101ab5760203660031901126101ab576020928291356109e26001600160a01b0361032883611a0f565b81526007845220549051908152f35b5091346105c75760208060031936011261028c5783359282815160a0810181811067ffffffffffffffff821117610b9557835286815283825b60808110610b855750508251610a3f81611457565b60078152663a3bb4ba3a32b960c91b85820152610a5b8261180f565b52610a658161180f565b508251610a7181611457565b600681526533b4ba343ab160d11b85820152610a8c82611832565b52610a9681611832565b508251610aa281611457565b60088152673634b735b2b234b760c11b85820152610abf82611842565b52610ac981611842565b508251610ad581611457565b6007815266191a5cd8dbdc9960ca1b85820152610af182611852565b52610afb81611852565b50815b8151811015610b7c57868352600a85528383208251821015610b6957610b3d8660ff92818560051b8701015190828951948386809551938492016113de565b8201908152030190205416610b55575b600101610afe565b94610b616001916115c9565b959050610b4d565b634e487b7160e01b845260328952602484fd5b84868551908152f35b6060828285010152018490610a2a565b634e487b7160e01b835260418852602483fd5b5091903461028c57610bb93661151c565b91835193602085019085821067ffffffffffffffff831117610be457610447969750528584526118a5565b634e487b7160e01b875260418852602487fd5b83346105c757610447610c093661151c565b91611645565b50503461028c57602036600319011261028c5760209181906001600160a01b03610c37611426565b16815260088452205415159051908152f35b5082903461028c57602092836003193601126101ab5767ffffffffffffffff92823584811161028c57610c7f90369085016114fe565b903381526008865282812054610ef557610c9a600b546115c9565b9384600b553315610ee05784825260028752838220546001600160a01b03169586151580610ead575b3384526003895286868520986001998a815401905581865260028b52878620336bffffffffffffffffffffffff60a01b82541617905533907fddf252ad1be2c89b69c2b068fc378daa952ba7f163c4a11628f55a4df523b3ef8780a4610e975785835260098852848320918451918211610e845750610d428254611551565b601f8111610e3e575b508796601f8211600114610dd757918180859388999a958b99968a9893610dcc575b501b916000199060031b1c19161790555b3381526008885220557f4b9ed06e3137795c5899255f8db4b6bd84acb31f14ef87d45194397c45049e90610dba84519285845285840190611401565b9142878201528033930390a351908152f35b89015192508d610d6d565b9196601f1982169088855289852091855b8b828210610e2a575050928899928899989592828a989610610e11575b5050811b019055610d7e565b88015160001960f88460031b161c191690558b80610e05565b888401518555938601939283019201610de8565b828452888420601f830160051c8101918a8410610e7a575b601f0160051c019088905b828110610e6f575050610d4b565b858155018890610e61565b9091508190610e56565b634e487b7160e01b845260419052602483fd5b506024918451916339e3563760e11b8352820152fd5b600087815260046020526040902080546001600160a01b0319169055878452600389528584208054600019019055610cc3565b602491845191633250574960e11b8352820152fd5b825162461bcd60e51b8152808501879052602860248201527f4964656e7469747920616c72656164792065786973747320666f722074686973604482015267206164647265737360c01b6064820152608490fd5b50346101ab5760803660031901126101ab5780359067ffffffffffffffff9060243582811161118c57610f7f90369083016114fe565b9160443581811161094d57610f9790369084016114fe565b9060643590811161094d57610faf90369084016114fe565b91610fb985611a0f565b6001600160a01b0390610fcf908216331461158b565b865160208082018881526080838b0152909591610fef60a0820189611401565b601f1990818382030160608401526110079088611401565b8281039182016080840152604281528881017f4920766572696679206f776e657273686970206f66207468697320706c61746690528b81017f6f726d206163636f756e7420666f72206d792053696c656e73206964656e7469905260600161747960f01b90526060810182526080016110809082611489565b5190207f19457468657265756d205369676e6564204d6573736167653a0a3332000000008a52601c52603c8920906110b791611a76565b6110c391939293611ab2565b3391160361115557507f0cd0e4bb9a89bd56cea492ec3d5b3226a3f612b684646f4509040174c1fd039f929161114691858852600a8252868820828851809287516111118184868c016113de565b820190815203019020600160ff19825416179055611139875194606086526060860190611401565b9184830390850152611401565b9342908201528033940390a380f35b855162461bcd60e51b81529081018390526011602482015270496e76616c6964207369676e617475726560781b6044820152606490fd5b8580fd5b5090346101ab57806003193601126101ab576111aa611426565b916024356111b781611a0f565b33151580611259575b80611230575b61121a576001600160a01b039485169482918691167f8c5be1e5ebec7d5bd14f71427d1e84f3dd0314c0f7b2291e5b200ac8c7c3b9258880a48452602052822080546001600160a01b031916909117905580f35b835163a9fbf51f60e01b81523381850152602490fd5b506001600160a01b03811686526005602090815284872033885290528386205460ff16156111c6565b506001600160a01b0381163314156111c0565b50346101ab5760203660031901126101ab5791826020933561128d81611a0f565b50825283528190205490516001600160a01b039091168152f35b8284346105c757806003193601126105c757815191828283546112c981611551565b90818452602095600191876001821691826000146105a05750506001146112fd5750505061038b929161037c910385611489565b91908693508280527f290decd9548b62a8d60345a988386fc84ba6bc95484008f6362f93160ef3e5635b828410611340575050508201018161037c61038b610531565b8054848a018601528895508794909301928101611327565b925050346101ab5760203660031901126101ab573563ffffffff60e01b81168091036101ab576020925063685bdd8b60e11b811490811561139b575b5015158152f35b6380ac58cd60e01b8114915081156113cd575b81156113bc575b5038611394565b6301ffc9a760e01b149050386113b5565b635b5e139f60e01b811491506113ae565b60005b8381106113f15750506000910152565b81810151838201526020016113e1565b9060209161141a815180928185528580860191016113de565b601f01601f1916010190565b600435906001600160a01b038216820361143c57565b600080fd5b602435906001600160a01b038216820361143c57565b6040810190811067ffffffffffffffff82111761147357604052565b634e487b7160e01b600052604160045260246000fd5b90601f8019910116810190811067ffffffffffffffff82111761147357604052565b67ffffffffffffffff811161147357601f01601f191660200190565b9291926114d3826114ab565b916114e16040519384611489565b82948184528183011161143c578281602093846000960137010152565b9080601f8301121561143c57816020611519933591016114c7565b90565b606090600319011261143c576001600160a01b0390600435828116810361143c5791602435908116810361143c579060443590565b90600182811c92168015611581575b602083101461156b57565b634e487b7160e01b600052602260045260246000fd5b91607f1691611560565b1561159257565b60405162461bcd60e51b815260206004820152600f60248201526e2737ba103a37b5b2b71037bbb732b960891b6044820152606490fd5b60001981146115d85760010190565b634e487b7160e01b600052601160045260246000fd5b156115f557565b60405162461bcd60e51b815260206004820152602260248201527f4964656e74697479204e46547320617265206e6f6e2d7472616e7366657261626044820152616c6560f01b6064820152608490fd5b6001600160a01b039182169283158015939192908085611805575b611669906115ee565b6117ec57826000958187526020956002875260409785898220541697889233151580611754575b507fddf252ad1be2c89b69c2b068fc378daa952ba7f163c4a11628f55a4df523b3ef929160029185611721575b61170b575b8683525289812080546001600160a01b0319168517905580a416928383036116ea5750505050565b6064945051926364283d7b60e01b8452600484015260248301526044820152fd5b858352600381528b8320600181540190556116c2565b600088815260046020526040902080546001600160a01b0319169055858452600382528c842080546000190190556116bd565b91935091939450806117ab575b156117725791879187949338611690565b88878961178f576024915190637e27328960e01b82526004820152fd5b604491519063177e802f60e01b82523360048301526024820152fd5b5033881480156117d0575b8061176157508683526004825233868a8520541614611761565b5087835260058252888320338452825260ff89842054166117b6565b604051633250574960e11b815260006004820152602490fd5b5081831615611660565b80511561181c5760200190565b634e487b7160e01b600052603260045260246000fd5b80516001101561181c5760400190565b80516002101561181c5760600190565b80516003101561181c5760800190565b1561186957565b60405162461bcd60e51b8152602060048201526014602482015273151bdad95b88191bd95cc81b9bdd08195e1a5cdd60621b6044820152606490fd5b6001600160a01b0380831693909284158015611a05575b6118c5906115ee565b6118d0828285611645565b3b6118dd575b5050505050565b604095929394955193630a85bd0160e11b928386523360048701521660248501526044840152608060648401528261191b6020966084830190611401565b039285816000958187895af18491816119c5575b5061198f575050503d600014611987573d611949816114ab565b906119576040519283611489565b81528091843d92013e5b8051928361198257604051633250574960e11b815260048101849052602490fd5b019050fd5b506060611961565b919450915063ffffffff60e01b16036119ad575038808080806118d6565b60249060405190633250574960e11b82526004820152fd5b9091508681813d83116119fe575b6119dd8183611489565b8101031261044a57516001600160e01b03198116810361044a57903861192f565b503d6119d3565b50828416156118bc565b6000818152600260205260409020546001600160a01b0316908115611a32575090565b60249060405190637e27328960e01b82526004820152fd5b6006546001600160a01b03163303611a5e57565b60405163118cdaa760e01b8152336004820152602490fd5b8151919060418303611aa757611aa092506020820151906060604084015193015160001a90611b37565b9192909190565b505060009160029190565b6004811015611b215780611ac4575050565b60018103611ade5760405163f645eedf60e01b8152600490fd5b60028103611aff5760405163fce698f760e01b815260048101839052602490fd5b600314611b095750565b602490604051906335e2f38360e21b82526004820152fd5b634e487b7160e01b600052602160045260246000fd5b91907f7fffffffffffffffffffffffffffffff5d576e7357a4501ddfe92f46681b20a08411611bbb57926020929160ff608095604051948552168484015260408301526060820152600092839182805260015afa15611baf5780516001600160a01b03811615611ba657918190565b50809160019190565b604051903d90823e3d90fd5b5050506000916003919056fea264697066735822122099af88762319121910091c8e8363dbab760c21f0f719661894f8a6b7e1d3ea0a64736f6c63430008180033",
  "linkReferences": {},
  "deployedLinkReferences": {}
}