{
  "_format": "hh-sol-artifact-1",
  "contractName": "SilensCore",
  "sourceName": "contracts/SilensCore.sol",
  "abi": [
    {
      "inputs": [
        {
          "internalType": "address",
          "name": "_modelRegistry",
          "type": "address"
        },
        {
          "internalType": "address",
          "name": "_reputationSystem",
          "type": "address"
        },
        {
          "internalType": "address",
          "name": "_proposalVoting",
          "type": "address"
        },
        {
          "internalType": "address",
          "name": "_identitySystem",
          "type": "address"
        }
      ],
      "stateMutability": "nonpayable",
      "type": "constructor"
    },
    {
      "inputs": [
        {
          "internalType": "address",
          "name": "owner",
          "type": "address"
        }
      ],
      "name": "OwnableInvalidOwner",
      "type": "error"
    },
    {
      "inputs": [
        {
          "internalType": "address",
          "name": "account",
          "type": "address"
        }
      ],
      "name": "OwnableUnauthorizedAccount",
      "type": "error"
    },
    {
      "anonymous": false,
      "inputs": [
        {
          "indexed": true,
          "internalType": "uint256",
          "name": "modelId",
          "type": "uint256"
        },
        {
          "indexed": true,
          "internalType": "uint256",
          "name": "proposalId",
          "type": "uint256"
        }
      ],
      "name": "AutoProposalCreated",
      "type": "event"
    },
    {
      "anonymous": false,
      "inputs": [
        {
          "indexed": true,
          "internalType": "address",
          "name": "previousOwner",
          "type": "address"
        },
        {
          "indexed": true,
          "internalType": "address",
          "name": "newOwner",
          "type": "address"
        }
      ],
      "name": "OwnershipTransferred",
      "type": "event"
    },
    {
      "anonymous": false,
      "inputs": [
        {
          "indexed": false,
          "internalType": "address",
          "name": "modelRegistry",
          "type": "address"
        },
        {
          "indexed": false,
          "internalType": "address",
          "name": "reputationSystem",
          "type": "address"
        },
        {
          "indexed": false,
          "internalType": "address",
          "name": "proposalVoting",
          "type": "address"
        },
        {
          "indexed": false,
          "internalType": "address",
          "name": "identitySystem",
          "type": "address"
        }
      ],
      "name": "SystemInitialized",
      "type": "event"
    },
    {
      "inputs": [
        {
          "internalType": "uint256",
          "name": "_modelId",
          "type": "uint256"
        }
      ],
      "name": "checkAndCreateProposal",
      "outputs": [],
      "stateMutability": "nonpayable",
      "type": "function"
    },
    {
      "inputs": [
        {
          "internalType": "address",
          "name": "_reviewer",
          "type": "address"
        }
      ],
      "name": "getReviewerIdentityToken",
      "outputs": [
        {
          "internalType": "uint256",
          "name": "",
          "type": "uint256"
        }
      ],
      "stateMutability": "view",
      "type": "function"
    },
    {
      "inputs": [
        {
          "internalType": "address",
          "name": "_reviewer",
          "type": "address"
        }
      ],
      "name": "hasVerifiedIdentity",
      "outputs": [
        {
          "internalType": "bool",
          "name": "",
          "type": "bool"
        }
      ],
      "stateMutability": "view",
      "type": "function"
    },
    {
      "inputs": [],
      "name": "identitySystem",
      "outputs": [
        {
          "internalType": "contract SilensIdentity",
          "name": "",
          "type": "address"
        }
      ],
      "stateMutability": "view",
      "type": "function"
    },
    {
      "inputs": [],
      "name": "modelRegistry",
      "outputs": [
        {
          "internalType": "contract SilensModelRegistry",
          "name": "",
          "type": "address"
        }
      ],
      "stateMutability": "view",
      "type": "function"
    },
    {
      "inputs": [
        {
          "internalType": "uint256",
          "name": "",
          "type": "uint256"
        }
      ],
      "name": "modelToProposal",
      "outputs": [
        {
          "internalType": "uint256",
          "name": "",
          "type": "uint256"
        }
      ],
      "stateMutability": "view",
      "type": "function"
    },
    {
      "inputs": [],
      "name": "owner",
      "outputs": [
        {
          "internalType": "address",
          "name": "",
          "type": "address"
        }
      ],
      "stateMutability": "view",
      "type": "function"
    },
    {
      "inputs": [],
      "name": "proposalVoting",
      "outputs": [
        {
          "internalType": "contract SilensProposalVoting",
          "name": "",
          "type": "address"
        }
      ],
      "stateMutability": "view",
      "type": "function"
    },
    {
      "inputs": [],
      "name": "renounceOwnership",
      "outputs": [],
      "stateMutability": "nonpayable",
      "type": "function"
    },
    {
      "inputs": [],
      "name": "reputationSystem",
      "outputs": [
        {
          "internalType": "contract SilensReputationSystem",
          "name": "",
          "type": "address"
        }
      ],
      "stateMutability": "view",
      "type": "function"
    },
    {
      "inputs": [
        {
          "internalType": "address",
          "name": "newOwner",
          "type": "address"
        }
      ],
      "name": "transferOwnership",
      "outputs": [],
      "stateMutability": "nonpayable",
      "type": "function"
    },
    {
      "inputs": [
        {
          "internalType": "address",
          "name": "_newIdentity",
          "type": "address"
        }
      ],
      "name": "updateIdentitySystem",
      "outputs": [],
      "stateMutability": "nonpayable",
      "type": "function"
    },
    {
      "inputs": [
        {
          "internalType": "address",
          "name": "_newRegistry",
          "type": "address"
        }
      ],
      "name": "updateModelRegistry",
      "outputs": [],
      "stateMutability": "nonpayable",
      "type": "function"
    },
    {
      "inputs": [
        {
          "internalType": "address",
          "name": "_newVoting",
          "type": "address"
        }
      ],
      "name": "updateProposalVoting",
      "outputs": [],
      "stateMutability": "nonpayable",
      "type": "function"
    },
    {
      "inputs": [
        {
          "internalType": "address",
          "name": "_newSystem",
          "type": "address"
        }
      ],
      "name": "updateReputationSystem",
      "outputs": [],
      "stateMutability": "nonpayable",
      "type": "function"
    }
  ],
  "bytecode": "0x60803461014d57601f610e0c38819003918201601f191683019291906001600160401b0384118385101761015257816080928492604096875283398101031261014d5761004b81610168565b61005760208301610168565b9161006f6060610068868401610168565b9201610168565b90331561013557917f11aa17d21276d7b0fb9a9d01cb3c82764e7f0d0668305299e18ea8abbf91306393916080936000549360018060a01b0380808060018060a01b03199733898b16176000558c5199823391167f8be0079c531659141344cd1fd0a4f28419497f9722a3daafe3b4186f6b6457e0600080a3169384886001541617600155169384876002541617600255169384866003541617600355168094600454161760045584526020840152858301526060820152a151610c8f908161017d8239f35b8451631e4fbdf760e01b815260006004820152602490fd5b600080fd5b634e487b7160e01b600052604160045260246000fd5b51906001600160a01b038216820361014d5756fe608060405260048036101561001357600080fd5b600090813560e01c8063043cf0cf14610aff57806313f0f18314610a615780631b947293146104165780632ba36f78146103ed5780632c31e00a146103435780636587eda11461031a57806366255cda146102d7578063715018a61461027d5780637bdbd7751461023a5780638460284e146101f65780638da5cb5b146101cf578063acc6dd9c146101a6578063c70555021461017f578063f1c73413146101535763f2fde38b146100c457600080fd5b3461014f57602036600319011261014f576001600160a01b038135818116929083900361014b576100f3610c2d565b8215610133575082546001600160a01b0319811683178455167f8be0079c531659141344cd1fd0a4f28419497f9722a3daafe3b4186f6b6457e08380a380f35b604051631e4fbdf760e01b8152908101849052602490fd5b8380fd5b5080fd5b823461017c578060031936011261017c576003546040516001600160a01b039091168152602090f35b80fd5b503461014f578160031936011261014f57546040516001600160a01b039091168152602090f35b503461014f57602036600319011261014f57602091604091358152600583522054604051908152f35b823461017c578060031936011261017c57546040516001600160a01b039091168152602090f35b503461014f57602036600319011261014f5780356001600160a01b0381169081900361023657610224610c2d565b81546001600160a01b03191617905580f35b8280fd5b503461014f57602036600319011261014f57356001600160a01b0381169081900361014f57610267610c2d565b6001600160601b0360a01b600354161760035580f35b823461017c578060031936011261017c57610296610c2d565b80546001600160a01b03198116825581906001600160a01b03167f8be0079c531659141344cd1fd0a4f28419497f9722a3daafe3b4186f6b6457e08280a380f35b503461014f57602036600319011261014f57356001600160a01b0381169081900361014f57610304610c2d565b6001600160601b0360a01b600254161760025580f35b823461017c578060031936011261017c576002546040516001600160a01b039091168152602090f35b503461014f576020918260031936011261017c5781356001600160a01b038181169182900361023657906024859285541694604051958693849263237f1a2160e01b84528301525afa9182156103e05781926103a6575b50506040519015158152f35b9091508281813d83116103d9575b6103be8183610b42565b8101031261014f575190811515820361017c5750388061039a565b503d6103b4565b50604051903d90823e3d90fd5b823461017c578060031936011261017c576001546040516001600160a01b039091168152602090f35b50903461017c57602036600319011261017c57600154604051631b4d85a560e21b8152833581850181905292916001600160a01b0316908281602481855afa90811561060b578391610945575b5080511561090a5760e001514211156108c65782825260056020526040822054610882579281602494604051958680926372e1a69960e01b825287868301525afa938415610877578294610680575b5081938294835b825181101561053a5760ff60809281846104d38588610c03565b51015116810180911161052757908591936104ee8487610c03565b510151161015610501575b6001016104b9565b95600019811461051457600101956104f9565b634e487b7160e01b855260118452602485fd5b634e487b7160e01b875260118652602487fd5b508590859251908115808015610678575b156106295750505050825b60038054604051631961bc7560e11b8152858101859052946001600160a01b039091169291821015610616575060448486602094829460248401525af191821561060b5783926105d7575b5080835260056020528160408420557f117394547d18fd8953c9d980f273ec91b9c8cd2ad6e8daa27b58c9cb659caf648380a380f35b9091506020813d602011610603575b816105f360209383610b42565b81010312610236575190836105a1565b3d91506105e6565b6040513d85823e3d90fd5b634e487b7160e01b865260219052602485fd5b61066557049060031180159061065b575b1561064757506002610556565b600311610655576001610556565b82610556565b508281101561063a565b634e487b7160e01b865260128552602486fd5b50811561054b565b9093503d908183823e6106938282610b42565b60208183810103126102365780519067ffffffffffffffff821161014b57828101601f83830101121561014b57818101519267ffffffffffffffff8411610864578360051b92604051946106ea6020860187610b42565b8552602085019282810160208684840101011161086057602082820101935b602086848401010185106107245750505050505092386104b2565b845167ffffffffffffffff811161085c5760c0838501820186850103601f19011261085c576040519060c0820182811067ffffffffffffffff821117610849576040526107776020828787010101610b7a565b825260408186860101015167ffffffffffffffff8111610845576107a79060208887019184898901010101610b93565b602083015260608186860101015167ffffffffffffffff8111610845576107da9060208887019184898901010101610b93565b604083015260808186860101015167ffffffffffffffff81116108455761080d9060208887019184898901010101610b93565b606083015260a08186860101015160ff811681036108455760808301528385010160c0015160a0820152815260209485019401610709565b8a80fd5b634e487b7160e01b8b5260418d5260248bfd5b8880fd5b8680fd5b634e487b7160e01b855260418752602485fd5b6040513d84823e3d90fd5b60405162461bcd60e51b8152602081860152601760248201527f50726f706f73616c20616c7265616479206578697374730000000000000000006044820152606490fd5b60405162461bcd60e51b8152602081860152601760248201527f52657669657720706572696f64206e6f7420656e6465640000000000000000006044820152606490fd5b60405162461bcd60e51b81526020818701526014602482015273135bd9195b08191bd95cc81b9bdd08195e1a5cdd60621b6044820152606490fd5b90503d8084833e6109568183610b42565b810160208282031261014b57815167ffffffffffffffff92838211610a4a570190610140928383830312610a4a5760405193840184811082821117610a4e57604052825184526109a860208401610b7a565b6020850152604083015181811161086057826109c5918501610b93565b6040850152606083015181811161086057826109e2918501610b93565b60608501526080830151908111610a4a57906109ff918301610b93565b608083015260a081015186811015610a465760a083015260c081015160c083015260e081015160e08301526101008082015190830152610120809101519082015238610463565b8480fd5b8580fd5b634e487b7160e01b875260418952602487fd5b50903461017c576020918260031936011261014f5780356001600160a01b038181169182900361014b57906024859284541693604051948593849263232eadf960e21b84528301525afa918215610af3578092610ac3575b5050604051908152f35b9091508282813d8311610aec575b610adb8183610b42565b8101031261017c5750513880610ab9565b503d610ad1565b604051903d90823e3d90fd5b503461014f57602036600319011261014f57356001600160a01b0381169081900361014f57610b2c610c2d565b6001600160601b0360a01b600154161760015580f35b90601f8019910116810190811067ffffffffffffffff821117610b6457604052565b634e487b7160e01b600052604160045260246000fd5b51906001600160a01b0382168203610b8e57565b600080fd5b919080601f84011215610b8e57825167ffffffffffffffff8111610b645760209060405192610bcb83601f19601f8501160185610b42565b818452828287010111610b8e5760005b818110610bf057508260009394955001015290565b8581018301518482018401528201610bdb565b8051821015610c175760209160051b010190565b634e487b7160e01b600052603260045260246000fd5b6000546001600160a01b03163303610c4157565b60405163118cdaa760e01b8152336004820152602490fdfea2646970667358221220c106bfd8b73af64927792c0da015122a006a6da350e9cab3a256e01138dc907c64736f6c63430008180033",
  "linkReferences": {},
  "deployedLinkReferences": {}
}