{
  "_format": "hh-sol-artifact-1",
  "contractName": "SilensProposalVoting",
  "sourceName": "contracts/SilensProposalVoting.sol",
  "abi": [
    {
      "inputs": [
        {
          "internalType": "address",
          "name": "_reputationSystem",
          "type": "address"
        },
        {
          "internalType": "address",
          "name": "_modelRegistry",
          "type": "address"
        }
      ],
      "stateMutability": "nonpayable",
      "type": "constructor"
    },
    {
      "inputs": [
        {
          "internalType": "address",
          "name": "owner",
          "type": "address"
        }
      ],
      "name": "OwnableInvalidOwner",
      "type": "error"
    },
    {
      "inputs": [
        {
          "internalType": "address",
          "name": "account",
          "type": "address"
        }
      ],
      "name": "OwnableUnauthorizedAccount",
      "type": "error"
    },
    {
      "inputs": [],
      "name": "ReentrancyGuardReentrantCall",
      "type": "error"
    },
    {
      "anonymous": false,
      "inputs": [
        {
          "indexed": true,
          "internalType": "address",
          "name": "previousOwner",
          "type": "address"
        },
        {
          "indexed": true,
          "internalType": "address",
          "name": "newOwner",
          "type": "address"
        }
      ],
      "name": "OwnershipTransferred",
      "type": "event"
    },
    {
      "anonymous": false,
      "inputs": [
        {
          "indexed": true,
          "internalType": "uint256",
          "name": "proposalId",
          "type": "uint256"
        },
        {
          "indexed": true,
          "internalType": "uint256",
          "name": "modelId",
          "type": "uint256"
        },
        {
          "indexed": false,
          "internalType": "uint8",
          "name": "proposalType",
          "type": "uint8"
        },
        {
          "indexed": false,
          "internalType": "uint8",
          "name": "status",
          "type": "uint8"
        },
        {
          "indexed": false,
          "internalType": "uint256",
          "name": "forVotes",
          "type": "uint256"
        },
        {
          "indexed": false,
          "internalType": "uint256",
          "name": "againstVotes",
          "type": "uint256"
        },
        {
          "indexed": false,
          "internalType": "uint256",
          "name": "startTime",
          "type": "uint256"
        },
        {
          "indexed": false,
          "internalType": "uint256",
          "name": "endTime",
          "type": "uint256"
        },
        {
          "indexed": false,
          "internalType": "bool",
          "name": "executed",
          "type": "bool"
        }
      ],
      "name": "ProposalCreated",
      "type": "event"
    },
    {
      "anonymous": false,
      "inputs": [
        {
          "indexed": true,
          "internalType": "uint256",
          "name": "proposalId",
          "type": "uint256"
        },
        {
          "indexed": false,
          "internalType": "uint8",
          "name": "result",
          "type": "uint8"
        },
        {
          "indexed": false,
          "internalType": "uint256",
          "name": "forVotes",
          "type": "uint256"
        },
        {
          "indexed": false,
          "internalType": "uint256",
          "name": "againstVotes",
          "type": "uint256"
        },
        {
          "indexed": false,
          "internalType": "uint256",
          "name": "totalGovernanceVoters",
          "type": "uint256"
        },
        {
          "indexed": false,
          "internalType": "uint256",
          "name": "quorum",
          "type": "uint256"
        },
        {
          "indexed": false,
          "internalType": "bool",
          "name": "quorumMet",
          "type": "bool"
        },
        {
          "indexed": false,
          "internalType": "bool",
          "name": "majorityWon",
          "type": "bool"
        }
      ],
      "name": "ProposalExecuted",
      "type": "event"
    },
    {
      "anonymous": false,
      "inputs": [
        {
          "indexed": true,
          "internalType": "uint256",
          "name": "proposalId",
          "type": "uint256"
        },
        {
          "indexed": true,
          "internalType": "address",
          "name": "voter",
          "type": "address"
        },
        {
          "indexed": false,
          "internalType": "bool",
          "name": "support",
          "type": "bool"
        },
        {
          "indexed": false,
          "internalType": "uint256",
          "name": "forVotes",
          "type": "uint256"
        },
        {
          "indexed": false,
          "internalType": "uint256",
          "name": "againstVotes",
          "type": "uint256"
        },
        {
          "indexed": false,
          "internalType": "uint256",
          "name": "timestamp",
          "type": "uint256"
        }
      ],
      "name": "VoteCast",
      "type": "event"
    },
    {
      "inputs": [
        {
          "internalType": "uint256",
          "name": "_modelId",
          "type": "uint256"
        },
        {
          "internalType": "enum SilensProposalVoting.ProposalType",
          "name": "_type",
          "type": "uint8"
        }
      ],
      "name": "createProposal",
      "outputs": [
        {
          "internalType": "uint256",
          "name": "",
          "type": "uint256"
        }
      ],
      "stateMutability": "nonpayable",
      "type": "function"
    },
    {
      "inputs": [
        {
          "internalType": "uint256",
          "name": "_proposalId",
          "type": "uint256"
        }
      ],
      "name": "executeProposal",
      "outputs": [],
      "stateMutability": "nonpayable",
      "type": "function"
    },
    {
      "inputs": [
        {
          "internalType": "uint256",
          "name": "_proposalId",
          "type": "uint256"
        }
      ],
      "name": "getProposal",
      "outputs": [
        {
          "components": [
            {
              "internalType": "uint256",
              "name": "id",
              "type": "uint256"
            },
            {
              "internalType": "uint256",
              "name": "modelId",
              "type": "uint256"
            },
            {
              "internalType": "enum SilensProposalVoting.ProposalType",
              "name": "proposalType",
              "type": "uint8"
            },
            {
              "internalType": "enum SilensProposalVoting.ProposalStatus",
              "name": "status",
              "type": "uint8"
            },
            {
              "internalType": "uint256",
              "name": "forVotes",
              "type": "uint256"
            },
            {
              "internalType": "uint256",
              "name": "againstVotes",
              "type": "uint256"
            },
            {
              "internalType": "uint256",
              "name": "startTime",
              "type": "uint256"
            },
            {
              "internalType": "uint256",
              "name": "endTime",
              "type": "uint256"
            },
            {
              "internalType": "bool",
              "name": "executed",
              "type": "bool"
            }
          ],
          "internalType": "struct SilensProposalVoting.Proposal",
          "name": "",
          "type": "tuple"
        }
      ],
      "stateMutability": "view",
      "type": "function"
    },
    {
      "inputs": [
        {
          "internalType": "uint256",
          "name": "",
          "type": "uint256"
        },
        {
          "internalType": "address",
          "name": "",
          "type": "address"
        }
      ],
      "name": "hasVoted",
      "outputs": [
        {
          "internalType": "bool",
          "name": "",
          "type": "bool"
        }
      ],
      "stateMutability": "view",
      "type": "function"
    },
    {
      "inputs": [],
      "name": "identitySystem",
      "outputs": [
        {
          "internalType": "contract SilensIdentity",
          "name": "",
          "type": "address"
        }
      ],
      "stateMutability": "view",
      "type": "function"
    },
    {
      "inputs": [],
      "name": "modelRegistry",
      "outputs": [
        {
          "internalType": "contract SilensModelRegistry",
          "name": "",
          "type": "address"
        }
      ],
      "stateMutability": "view",
      "type": "function"
    },
    {
      "inputs": [],
      "name": "owner",
      "outputs": [
        {
          "internalType": "address",
          "name": "",
          "type": "address"
        }
      ],
      "stateMutability": "view",
      "type": "function"
    },
    {
      "inputs": [
        {
          "internalType": "uint256",
          "name": "",
          "type": "uint256"
        }
      ],
      "name": "proposals",
      "outputs": [
        {
          "internalType": "uint256",
          "name": "id",
          "type": "uint256"
        },
        {
          "internalType": "uint256",
          "name": "modelId",
          "type": "uint256"
        },
        {
          "internalType": "enum SilensProposalVoting.ProposalType",
          "name": "proposalType",
          "type": "uint8"
        },
        {
          "internalType": "enum SilensProposalVoting.ProposalStatus",
          "name": "status",
          "type": "uint8"
        },
        {
          "internalType": "uint256",
          "name": "forVotes",
          "type": "uint256"
        },
        {
          "internalType": "uint256",
          "name": "againstVotes",
          "type": "uint256"
        },
        {
          "internalType": "uint256",
          "name": "startTime",
          "type": "uint256"
        },
        {
          "internalType": "uint256",
          "name": "endTime",
          "type": "uint256"
        },
        {
          "internalType": "bool",
          "name": "executed",
          "type": "bool"
        }
      ],
      "stateMutability": "view",
      "type": "function"
    },
    {
      "inputs": [],
      "name": "quorumPercentage",
      "outputs": [
        {
          "internalType": "uint256",
          "name": "",
          "type": "uint256"
        }
      ],
      "stateMutability": "view",
      "type": "function"
    },
    {
      "inputs": [],
      "name": "renounceOwnership",
      "outputs": [],
      "stateMutability": "nonpayable",
      "type": "function"
    },
    {
      "inputs": [],
      "name": "reputationSystem",
      "outputs": [
        {
          "internalType": "contract SilensReputationSystem",
          "name": "",
          "type": "address"
        }
      ],
      "stateMutability": "view",
      "type": "function"
    },
    {
      "inputs": [
        {
          "internalType": "address",
          "name": "_identitySystem",
          "type": "address"
        }
      ],
      "name": "setIdentitySystem",
      "outputs": [],
      "stateMutability": "nonpayable",
      "type": "function"
    },
    {
      "inputs": [
        {
          "internalType": "address",
          "name": "newOwner",
          "type": "address"
        }
      ],
      "name": "transferOwnership",
      "outputs": [],
      "stateMutability": "nonpayable",
      "type": "function"
    },
    {
      "inputs": [
        {
          "internalType": "uint256",
          "name": "_proposalId",
          "type": "uint256"
        },
        {
          "internalType": "bool",
          "name": "_support",
          "type": "bool"
        }
      ],
      "name": "vote",
      "outputs": [],
      "stateMutability": "nonpayable",
      "type": "function"
    },
    {
      "inputs": [],
      "name": "votingPeriod",
      "outputs": [
        {
          "internalType": "uint256",
          "name": "",
          "type": "uint256"
        }
      ],
      "stateMutability": "view",
      "type": "function"
    }
  ],
  "bytecode": "0x6080346100ec57601f61113f38819003918201601f19168301916001600160401b038311848410176100f15780849260409485528339810103126100ec57610052602061004b83610107565b9201610107565b9033156100d3576000549160018060a01b03908160018060a01b031993338587161760005560405195823391167f8be0079c531659141344cd1fd0a4f28419497f9722a3daafe3b4186f6b6457e0600080a36001805561025860055560146006551683600754161760075516906008541617600855611023908161011c8239f35b604051631e4fbdf760e01b815260006004820152602490fd5b600080fd5b634e487b7160e01b600052604160045260246000fd5b51906001600160a01b03821682036100ec5756fe608080604052600436101561001357600080fd5b600090813560e01c908163013cf08b14610d695750806302a251a314610d4b5780630d61b519146108c75780632ba36f781461089e57806332c378ea1461070057806343859632146106ae5780634fa76ec9146106905780636587eda11461066757806366ccea5b14610622578063715018a6146105c85780638da5cb5b146105a1578063c705550214610578578063c7f758a81461043c578063c9d27afe146101585763f2fde38b146100c657600080fd5b34610155576020366003190112610155576100df610e31565b6100e7610fc1565b6001600160a01b0390811690811561013c57600054826bffffffffffffffffffffffff60a01b821617600055167f8be0079c531659141344cd1fd0a4f28419497f9722a3daafe3b4186f6b6457e0600080a380f35b604051631e4fbdf760e01b815260048101849052602490fd5b80fd5b50346101555760403660031901126101555760043560249081358015159283820361043857610185610f9e565b60095460405163237f1a2160e01b8152336004820152602093916001600160a01b039190859082908690829086165afa8015610410576101cc91899161041b575b50610ec8565b60075416604051633b58bc8160e01b81528481600481855afa801561041057859189916103dc575b50604460405180948193632e4bfa5160e11b8352336004840152888301525afa9081156103d15787916103a4575b50156103695783865260038352604086209161024083541515610f14565b6006830154421161033757848752600484526040872033600052845260ff60406000205416610304575083865260048352604086203360005283526040600020600160ff198254161790556000146102ef57600381016102a08154610f83565b90555b600460038201549101549160405194855284015260408301524260608301527f6f6f95f30a8e58dcbd04046390ab11f621176801303e8fd816ddb1002c0004d960803393a36001805580f35b600481016102fd8154610f83565b90556102a3565b83600d6064926040519262461bcd60e51b845260048401528201526c105b1c9958591e481d9bdd1959609a1b6044820152fd5b83600c6064926040519262461bcd60e51b845260048401528201526b159bdd1a5b99c8195b99195960a21b6044820152fd5b60405162461bcd60e51b815260048101849052601481840152734e6f7420656c696769626c6520746f20766f746560601b6044820152606490fd5b6103c49150843d86116103ca575b6103bc8183610e8e565b810190610eb0565b38610222565b503d6103b2565b6040513d89823e3d90fd5b82819392503d8311610409575b6103f38183610e8e565b8101031261040457849051386101f4565b600080fd5b503d6103e9565b6040513d8a823e3d90fd5b6104329150863d88116103ca576103bc8183610e8e565b386101c6565b8480fd5b50346101555760203660031901126101555761012090604080519161046083610e71565b80835280602084015280828401528060608401528060808401528060a08401528060c08401528060e08401528061010080940152600435815260036020522090604051916104ad83610e71565b8054835260018101549060208401918252600281015460ff60408601916104d682821684610f92565b60081c1660608601906104e881610e27565b815260038301546080870190815260048401549160a0880192835261054860058601549460c08a0195865260ff600760068901549860e08d01998a5201541697898b0198151589526040519a518b525160208b01525160408a0190610e04565b5161055281610e27565b60608801525160808701525160a08601525160c08501525160e084015251151590820152f35b50346101555780600319360112610155576009546040516001600160a01b039091168152602090f35b5034610155578060031936011261015557546040516001600160a01b039091168152602090f35b50346101555780600319360112610155576105e1610fc1565b600080546001600160a01b0319811682556001600160a01b03167f8be0079c531659141344cd1fd0a4f28419497f9722a3daafe3b4186f6b6457e08280a380f35b50346101555760203660031901126101555761063c610e31565b610644610fc1565b60018060a01b03166bffffffffffffffffffffffff60a01b600954161760095580f35b50346101555780600319360112610155576007546040516001600160a01b039091168152602090f35b50346101555780600319360112610155576020600654604051908152f35b5034610155576040366003190112610155576024356001600160a01b038116919082900361040457604090600435815260046020522090600052602052602060ff604060002054166040519015158152f35b50346101555760403660031901126101555760243590600435600383101561089a5761072a610fc1565b610735600254610f83565b918260025561074660055442610f60565b60405161075281610e71565b84815260208101918483526040820161076b8882610f92565b60608301908582526080840186815260a085019187835260c086019342855260e087019586526101008701978989528b8a52600360205260408a209751885551600188015560028701915190600382101561088657947f57c2bdfda454a4d5fb391914f9c629b2b2a170dc7424aa0f25efff4e0753b3c498946007948460209f99948f9d9960ff61ff0060e09e9954925161080581610e27565b61080e81610e27565b60081b1692169061ffff191617179055516003850155516004840155516005830155516006820155019051151560ff8019835416911617905561085360055442610f60565b60ff60405193168352818984015281604084015281606084015242608084015260a083015260c0820152a3604051908152f35b634e487b7160e01b8a52602160045260248afd5b5080fd5b50346101555780600319360112610155576008546040516001600160a01b039091168152602090f35b5034610155576020366003190112610155576108e1610f9e565b60095460405163237f1a2160e01b815233600482015290602090829060249082906001600160a01b03165afa8015610afc57610923918391610d325750610ec8565b600435815260036020526040812061093d81541515610f14565b6006810154421115610cfa5760078101805460ff8116610cc25760ff191660011790556003810154600482015491906109768382610f60565b9260018060a01b036007541691604051633b58bc8160e01b8152602081600481875afa80156103d1578790610c8f575b6020915060246040518096819363bd85b03960e01b835260048301525afa928315610c84578693610c4c575b5060065494858402958487041484151715610c3857606486041115918280610c2f575b15610c0f57505050600282019182549261010061ff0019851617905560019360019260ff600195166003811015610bfb5780610b0b5750600854600184015488916001600160a01b031690813b15610b07578291604483926040519485938492632f30187b60e01b84526004840152600160248401525af18015610afc57610ae4575b50506064925b600460038201549101549060ff60405198168852602088015260408701526060860152046080840152151560a0830152151560c08201527f6b574b232c905320466c0dddce22d855cd0e3426b05c6914d1b07703defe0d0e60e060043592a26001805580f35b610aed90610e47565b610af8578638610a78565b8680fd5b6040513d84823e3d90fd5b8280fd5b60018103610b7e5750600854600184015488916001600160a01b031690813b15610b07578291604483926040519485938492632f30187b60e01b84526004840152600260248401525af18015610afc57610b6a575b5050606492610a7e565b610b7390610e47565b610af8578638610b60565b91929091600214610b94575b9060649291610a7e565b600854600182015488916001600160a01b0316803b15610b0757604483926040519485938492632f30187b60e01b84526004840152600360248401525af1801561041057610be3575b50610b8a565b96610bf2606494939298610e47565b96909192610bdd565b634e487b7160e01b88526021600452602488fd5b6002858101805461ff001916610200179055959111939192606492610a7e565b508082116109f5565b634e487b7160e01b87526011600452602487fd5b9092506020813d602011610c7c575b81610c6860209383610e8e565b81010312610c78575191386109d2565b8580fd5b3d9150610c5b565b6040513d88823e3d90fd5b506020813d602011610cba575b81610ca960209383610e8e565b81010312610af857602090516109a6565b3d9150610c9c565b60405162461bcd60e51b815260206004820152601060248201526f105b1c9958591e48195e1958dd5d195960821b6044820152606490fd5b60405162461bcd60e51b815260206004820152601060248201526f159bdd1a5b99c81b9bdd08195b99195960821b6044820152606490fd5b610432915060203d6020116103ca576103bc8183610e8e565b50346101555780600319360112610155576020600554604051908152f35b90503461089a57602036600319011261089a5760406101209260043581526003602052208054906001810154600282015460ff8160081c16600384015490610dd860048601549360058701549560ff600760068a015499015416988a5260208a015260ff60408a019116610e04565b610de181610e27565b6060870152608086015260a085015260c084015260e08301521515610100820152f35b906003821015610e115752565b634e487b7160e01b600052602160045260246000fd5b60041115610e1157565b600435906001600160a01b038216820361040457565b67ffffffffffffffff8111610e5b57604052565b634e487b7160e01b600052604160045260246000fd5b610120810190811067ffffffffffffffff821117610e5b57604052565b90601f8019910116810190811067ffffffffffffffff821117610e5b57604052565b90816020910312610404575180151581036104045790565b15610ecf57565b60405162461bcd60e51b815260206004820152601b60248201527f4d7573742068617665207665726966696564206964656e7469747900000000006044820152606490fd5b15610f1b57565b60405162461bcd60e51b815260206004820152601760248201527f50726f706f73616c20646f6573206e6f742065786973740000000000000000006044820152606490fd5b91908201809211610f6d57565b634e487b7160e01b600052601160045260246000fd5b6000198114610f6d5760010190565b6003821015610e115752565b600260015414610faf576002600155565b604051633ee5aeb560e01b8152600490fd5b6000546001600160a01b03163303610fd557565b60405163118cdaa760e01b8152336004820152602490fdfea26469706673582212207155f798f37476923aaee04e07802f487d02ae8f4bf94dc88f9e5777429a680364736f6c63430008180033",
  "linkReferences": {},
  "deployedLinkReferences": {}
}